:0400000080313D28E6
:100008007E14803120007F08F1000B1C38280B106B
:100018002700131C3828131020000C1C1528013049
:1000280016280030F0006F08031D1C2801301D2819
:1000380000307005003803192428EF01EF0A38282A
:100048000C182828013029280030F0006F08031DFB
:100058002F2801303028003070050038031938285F
:100068000230F0007008EF0071082000FF007E10D9
:10007800090080313F28043084008F3085006630C5
:100088008600003087000030FF0008308F313F279E
:100098008031C330840087308500A030860000306E
:1000A80087000030FF001C308F313F2780318C30B3
:1000B8008400233085006430FE000030FF008F315B
:1000C80033278031FA01FB01EE01EF01BC308400D7
:1000D800003085000A30FE000030FF008F313327E2
:1000E8007E102000803178288F311E2780318F3193
:1000F800E62780318731DF278031853190258031AF
:1001080021008E1037308F31A82780312000CA0097
:10011800CB014A08CC004B08CD000330CA004A087E
:10012800EF008B150B1020008E106F030319A82801
:1001380002306F060319A82803306F060319A82890
:1001480004306F06031D25298B1122000C128731FC
:10015800DF2780318331672380318F3176278031E3
:1001680070302000CA004A08F30007308F314B274F
:10017800803106302000CA003030890BC128CA0BF4
:10018800C128000022000C166430890BC928AF3042
:100198008600003087004F3084000030850005302D
:1001A8002000CA0016001A00CA0BD6280330CA005D
:1001B8004A08CF006F08FF3ECA004A08D1004F30F6
:1001C800CA004A08F300053087319F2780310D3077
:1001D8002000CA00FB30890BEF28CA0BEF28003239
:1001E8008F3176278031F60100308F3159278031E1
:1001F8000D302000CA00FB30890B0029CA0B0029EA
:1002080000322000EF0122000E1682302000CA00C2
:10021800DD30890B0D29CA0B0D29003222000E1280
:100228008E1682302000CA00DD30890B1929CA0BCE
:100238001929003222008E120B10270013100B1000
:100248008B1565308F3197278031003A031997282D
:100258005E308F31D0278031003A0319392A5E3059
:100268008531322580312000CA004A08CE0022009C
:100278000C128731DF2780318331672380318F313A
:100288007627803170302000CA004A08F300073012
:100298008F314B27803106302000CA003030890B5F
:1002A8005329CA0B5329000022000C166430890B0D
:1002B8005B29C13086000030870059308400003047
:1002C800850005302000CA0016001A00CA0B6829EC
:1002D8001E30CA004A08D9005E08CA004A08DA0077
:1002E8005F08CA004A08DB006008CA004A08DC0048
:1002F8006108CA004A08DD005930CA004A08F300FC
:10030800053087319F2780310D302000CA00FB302F
:10031800890B8C29CA0B8C2900328F3176278031C2
:10032800F30100308F314B2780310D302000CA0097
:10033800FB30890B9D29CA0B9D29003222000E161D
:100348000C128731DF2780318331ED23803106306D
:100358002000CA003030890BAF29CA0BAF29000032
:1003680022000C167130890BB7290000D03020000C
:10037800CA004A08E40082302000CA00DD30890B38
:10038800C329CA0BC3290032BC308600003087005D
:10039800543084000030850005302000CA00160063
:1003A8001A00CA0BD3298F3128278031003A031944
:1003B800312A54302000CA004A08F300053087313A
:1003C800502780318F3176278031463020005406FF
:1003D800031D312A5503031D1C2A22000E168230E4
:1003E8002000CA00DD30890BF729CA0BF729003233
:1003F80022000E128E1682302000CA00DD30890BD2
:10040800032ACA0B032A003222008E1220008E14FF
:100418000B302000CB002630CA005D30890B122A31
:10042800CA0B122ACB0B122A003220008E10372A50
:100438005508031D312A22008E1602302000CB00F9
:100448000430CA00BA30890B272ACA0B272ACB0BDB
:10045800272A000022008E12372A01302000E402E9
:100468006408031DBF2922000E128631E12680315F
:1004780097282000B2000230A6002608AF00B1017C
:10048800AE01552A1230A6002608B1001030512AB4
:100498007730A6002608B1003030A6002608AE0046
:1004A8005D2A32080C3A03194C2A023A0319462AE3
:1004B8005D2A31088038A6002608F60002308F3100
:1004C8005927823180302000A6002608F800043021
:1004D8008F318627823180302000A6002608F80058
:1004E8000A308F3167278231F60101308F31592761
:1004F80082312000B301B4012308A600A701270810
:100508003402031D892A2608330203189F2A330858
:100518002207A6002608860087010108A7002708E9
:10052800F60009308F315927823101302000B30796
:100538000030B43D802A3208A6002608F6000130B3
:100548008F31592782310C3020003206031DB42A1E
:100558008030A6002608F8000D308F3167278231D9
:10056800D0302000B3000730B40004308F31A82702
:1005780082312000A6002608B5000130B302003001
:10058800B43B33083404031D3518CE2A35082E052C
:100598000319B92A8030A6002608F8000D308F31DB
:1005A800862782312000330834040319652B06306E
:1005B8008F31A82782311B39031D602B2000AF0122
:1005C80031083505A600261CEB2AAF01AF0A0C300E
:1005D8003206031D652B0A308F31A827823120008F
:1005E800A6002608B5000C308F31A82782310739BC
:1005F8002000A6002608B00030080319232B300875
:10060800A600A7013508A800A901A835A90DA83595
:10061800A90DA835A90D26082807AA002708293DED
:10062800AB002A08F83EAC00FF302B3DAD00250892
:10063800860087012C08C03F2D08C13F332B3508A1
:10064800A600A701A635A70DA635A70DA635A70DA7
:100658002508860087012608C03F2708C13F3508BE
:10066800031D382BB501B50A11303502031C402B88
:100678001030A6002608B500B301B4013508A6005D
:10068800A70127083402031D4B2B26083302031841
:10069800652B09308F31A82782312000A600330846
:1006A8002407A70027088600870126088100013053
:1006B800B3070030B43D422B02302000A6002608C4
:1006C800AF002F080800AB302000A0002008A600CB
:1006D800AC30A0002008A500AD30A0002008A40080
:1006E800AE30A0002008A300AF30A0002008A20070
:1006F80022000C1205302000A0002008F300223050
:10070800A1002108F40010308731782783310530A3
:100718002000A0002008F3002230A1002108F400E6
:100728000A30873178278331F301F30A01308F319A
:100738004B278331F301F30A02308F314B27833182
:1007480003302000A0002008F30003308F314B272E
:1007580083312F302000A0002008F30004308F31AF
:100768004B2783312C302000A0002008F3000530EF
:100778008F314B27833106302000A0002008F3007A
:1007880006308F314B27833170302000A0002008BD
:10079800F30007308F314B27833105302000A0004C
:1007A8002008F30011308F314B2783317A30200035
:1007B800A0002008F30000308F314B27833106302A
:1007C8002000A0003030890BE72BA00BE72B00009E
:1007D8000800AB302000A0002008A600AC30A00024
:1007E8002008A500AD30A0002008A400AE30A0006D
:1007F8002008A300AF30A0002008A2000530A00008
:100808002008F3002230A1002108F40010308731BD
:100818007827833105302000A0002008F30022301B
:10082800A1002108F4000A30873178278331F301C9
:10083800F30A01308F314B278331F301F30A023079
:100848008F314B27833103302000A0002008F300AC
:1008580003308F314B2783312F302000A000200830
:10086800F30004308F314B27833128302000A0005B
:100878002008F30005308F314B27833106302000E4
:10088800A0002008F30006308F314B2783317030E9
:100898002000A0002008F30007308F314B27833158
:1008A80005302000A0002008F30011308F314B27BD
:1008B80083317B302000A0002008F30000308F3106
:1008C8004B27833106302000A0003030890B6A2C7A
:1008D800A00B6A2C000022000C1608002000C000A3
:1008E800BB01F6010D308F31592784319330200038
:1008F800B600400886008701360881002030B6001F
:10090800400A86008701360881000830B60036089C
:10091800F80008308F318627843120004008B6005F
:100928003608A2000230B7003708A3004008B80014
:100938003808A4003C30B9003908A5000C308231D1
:100948003D2284312000BA003A08BE003E08031D4B
:10095800D02CBF0104303F020318C42C3F084007C5
:10096800B6003608860087010108B7003708BB06BD
:100978000130B6003608BF0704303F02031CB22C12
:100988004008043E8600870101083B060319D02C65
:100998000230B6003608BE003E0808002000A60057
:1009A8000430A4002408F80005308F3186278431EC
:1009B80080302000A4002408F8000A308F3167270F
:1009C80084312000A701220827020318002D2608D9
:1009D800860087010108A4002408F60009308F3139
:1009E8005927843101302000A4002408A6070130CB
:1009F800A4002408A707E72C0330A4002408F60065
:100A080001308F3159278431FF302000A400240899
:100A1800A70005308F31A82784312000A4002408BE
:100A2800A5000130A702270803191C2D251D0D2D2F
:100A380022308F31A82784312000A40023088600A3
:100A480087012408810021308F31A8272000A400C5
:100A5800230A860087012408810008002000C500B9
:100A68009330B6003608BB007030B6003608BC00BC
:100A78000230B6003608C9000730490203185B2D5A
:100A88004508860087010108B60049083B3E8600F4
:100A98008701360881000130B6003608C5070130E5
:100AA800B6003608C90707304902031C442D073031
:100AB800B6003608A2004230B7003708A3003B3022
:100AC8008431D22485313B302000B6003608A2009C
:100AD8000930B7003708A3003B30B8003808A40035
:100AE8004730B9003908A5000C3082313D228531E4
:100AF8002000BA003A08C4004408031D8D2D1830A0
:100B080047064804031D8D2D3B08B6003608C6006D
:100B18008E2DC6014608080022000E1682302000DD
:100B2800A200DD30890B962DA20B962D00322200F3
:100B38000E128E1682302000A200DD30890BA22D05
:100B4800A20BA22D003222008E128E31FC26853196
:100B58008D302000A2002208F6002A308F31592754
:100B680085313E302000A2002208F6002B308F315C
:100B7800592785311E302000A2002208F6002D30AA
:100B88008F3159278531F6012C308F31592785311E
:100B980040302000A2002208F60015308F31592776
:100BA80085313D302000A2002208F60011308F3137
:100BB800592785318F31152708000034D634783409
:100BC8008C34E234AA340C3418342A34B8347A34E5
:100BD8007F34D3346A34CF340B34B134373463348C
:100BE8004B346934AE349134C734C3349734AE349B
:100BF8007734F4343734D7349B347C34F5343C348C
:100C080011348F341534C334D734C1345B340034D1
:100C18002A34D0347534DE349E3451346434AB34E1
:100C28003E34E9341534B534AB3456349A349834F8
:100C380082342634EA342A3462340034EB3466349D
:100C4800BA345734BF3423349534D034E3340D34B4
:100C58003D34273489345C34DE349D343B34A73446
:100C6800003421345B348934823451343A34EB34DF
:100C780002340C34A534003449347C3484344D3483
:100C8800B334CC34D2341B3481345D3448347634B4
:100C9800D534713461342134A9348634963483349C
:100CA8003834CF349D345B346D34DC341534BA3485
:100CB8003E347D3495343B342F340034C6343734D5
:100CC800D5343234B73457345C34C234D8347C34F5
:100CD8004D34D9347034C73473341034E634D234D4
:100CE800AA345E34A1343E345A341434AF34303428
:100CF8006134C9347034DB342E34643422347234B1
:100D0800B534BD346534F434EC342234BC34D334D3
:100D180072343534CD34AA3441341F34A734F33413
:100D280053341434DE347E340234D9340F34B534B9
:100D38005E3425341D3429347934003487349834AA
:100D48000F344934FF3407341934BF342234303473
:100D5800493459346334AD34CA347F34E3344E34BF
:100D680003345C344E344934503447349A3437347D
:100D78006134E734E234C6342E3475345A34ED34F1
:100D880004343D3402344B3478343234FF3458342C
:100D98003B347C34E93400349434B4344A34593420
:100DA8005B34FD34C9342934DF343534963498340F
:100DB8009E344F34303432348D3450302000B600F5
:100DC8003608BA00BB010230B6003608A2003C3033
:100DD800B7003708A3003A308431D22486318030F6
:100DE8002000B6003608F80008308F318627863193
:100DF8003A302000B6003608A2000430B7003708A1
:100E0800A3003A30B8003808A4003E30B9003908C9
:100E1800A5000C3082313D22863108302000B60012
:100E28003608F80008308F31862708002000BB00FC
:100E38000730B7003708F6000D308F315927873152
:100E480020003B08B7003608860087013708810074
:100E58003608B7003708A200A301A30A3608B8006D
:100E68003808A4003D30B9003908A5000C3082319B
:100E78003D2287312000BA003A08BC003C08031D17
:100E88004A2F10303D063E0403194E2F0230B7009A
:100E98003708BC003C080800F60022000E13613039
:100EA8008E31F4268731F7017608770203186E2F02
:100EB800FF308E31F4268731F40077087307F50088
:100EC800750886008701740881000130F4007408F1
:100ED800F707582F22000E170330F4009830890BBB
:100EE800732FF40B732F0800F60022000E137608F8
:100EF80020388E31F4268731F701F8017808803AD6
:100F0800F50080307502031D8B2F730877020318D4
:100F18009C2F77087407F50075088600870101087B
:100F28008E31F42687310130F7070030F83D822FE3
:100F380022000E170800F50022000E13A0308E3193
:100F4800F4268731F601750876020318BA2F760859
:100F58007307F40074088600870101088E31F426AF
:100F680087310130F4007408F607A72F22000E1706
:100F78000C160830890BBE2F22000C12080073349F
:100F88006D346134723474344C3441344234003436
:100F9800FF34FF34FF34FF34FF34FF3400340134AE
:100FA800003403340D3470341534A3342B347034C6
:100FB800EB34B7342B3424009516910123008C01AF
:100FC8008D018E0121000D130D168E130E130C12B8
:100FD8008E120E128C1222008C160E170C12240080
:0C0FE800141715129413F0309505080042
:101DE800F200720824009100141CF82E1108080053
:101DF8000F30F8007808F60001308F3159270800B5
:101E08000C3409345234A3347B34B3345234C334DD
:101E1800F30022000E1373088E31F42622000E17E9
:101E2800080003302000A1002108F80014308F3189
:101E38006727080021001908C33938389900FC3091
:101E4800990519179913080007308F31BB278F316F
:101E5800403A031D312F01300800003008006400AB
:101E6800800101310130FE020030FF3B7F087E0413
:101E780003190034342FFE0012001E000130FE0248
:101E88000030FF3B7F087E0403190034402FF40024
:101E980022000E13740820388E31F4268F3173080F
:101EA8008E31F42622000E170800F70022008C124B
:101EB80077357E398E31F4268F3176088E31F426C7
:101EC80022008C1608002000A00020088F31A827C7
:101ED8008F317804F9007908F600200020088F3146
:101EE800592708007030F5007508F30007308F3166
:101EF8004B278F31E2308F310C278F31E1308F3112
:101F08000C270800F90078092000A00079088F3113
:101F1800A8278F3120002005A1002108F6007908A4
:101F28008F31592708002000C0004008BF003F0833
:101F3800B600263087311A278F31003A031DA62FA5
:101F48000130080000300800F40022008C127435BB
:101F58007E3980388E31F4268F3100308E31F42668
:101F6800F3007308F50022008C1675080800F400C9
:101F780022000E137408F3007308F50075088E31FB
:101F8800F4268F31FF308E31F426F3007308F60003
:101F980022000E17760808002000C3004308843189
:101FA80072248F312000C1004108C2004308053E59
:101FB8008600870181014208031DE42F01300800D3
:101FC8000030080023008C018D018E0121000E10C5
:101FD8008E100E118E110E128E120E138E138C127D
:101FE8000C120D128D160D138D17270011141214D3
:081FF8008B150B178B17080075
:020000040001F9
:04000E00E4C9CFDC96
:00000001FF
