:040000008131E12940
:100008007E14803120007F08D6008731E9278031AF
:1000180021008E1523008E152000111CDD291110DA
:1000280018102100111001302000CE004E08EA07F8
:1000380006306A06031DD12922000E148B160D30D6
:100048002000CE00FB30890B2728CE0B2728003252
:10005800283020006B02031853280B1D2C288330EE
:1000680095000B1121009D149D1838281B082000AD
:10007800CE004E08DC0021001C082000CE004E08EF
:10008800DD006B35203E8600013087005C08C03FEC
:100098005D08C13F0130CE004E08EB072C288B12BB
:1000A8008B13EB010030E1000030E0000030DF008E
:1000B8000030DE000030E5000030E4000030E300EE
:1000C8000030E200E701E801E601E60128306602B7
:1000D800031890286635203E860001308700403F8F
:1000E800CE00413FCF004E08D0004F08D10000306D
:1000F800D11BFF30D200D3005008E2075108E33D7E
:100108005208E43D5308E53D0130CE004E08E607AD
:1001180028306602031C6E280030F3000030F2001D
:100128000030F1002830F0006508F7006408F60098
:100138006308F5006208F40086310E2680317308E2
:100148002000E5007208E4007108E3007008E2008E
:100158000030CE000230CF000030D0000030D10097
:100168006209D2006309D3006409D4006509D50087
:10017800D20A0319D30A0319D40A0319D50A520853
:10018800CE075308CF3D5408D03D5508D13D5108FE
:10019800E5005008E4004F08E3004E08E200E601DD
:1001A8002830660203182C296635203E8600013067
:1001B8008700403FCE00413FCF0062084E07D00085
:1001C80063084F3DD1006635203E86000130870028
:1001D8005008C03F5108C13F6635203E86000130B7
:1001E8008700403FCE00413FCF004E08003EF00060
:1001F800FE304F3DF100F201F11BF2037208F300EB
:100208006635203E860001308700403FD000413FE0
:10021800D1005008003EF400FE30513DF500F601D3
:10022800F51BF6037608F7008631DC268031700866
:100238002000DE077108DF3D7208E03D7308E13DEC
:100248000130CE004E08E60728306602031CD82885
:100258000030F3000030F2000030F1002830F000E8
:100268006108F7006008F6005F08F5005E08F40012
:1002780086310E26803173082000E1007208E00004
:100288007108DF007008DE006108FB006008FA00F2
:100298005F08F9005E08F80087310B27803178087D
:1002A8002000AD007908AE007A08AF00833105233D
:1002B800803120002D08C0002E08C1002F08C20080
:1002C8008431A824803120004108E8004008E70074
:1002D800833095008731BE278031F10100308F319E
:1002E800D127803122000C1285312F2580318F31A2
:1002F800DF27803170302000CE004E08F100073033
:100308008F31D127803106302000CE003030890B64
:100318008B29CE0B8B29000022000C166430890B28
:100328009329A030860000308700573084000030C1
:10033800850005302000CE0016001A00CE0BA0293B
:100348000230CE004E08D7000D30CE004E08D8003F
:100358006708CE004E08D9006808CE004E08DA00BB
:100368005730CE004E08F100053087315A278031CA
:100378000D302000CE00FB30890BC029CE0BC029E0
:1003880000328F31DF278031F10100308F31D127E2
:1003980080312000EA0122000E10210011142000F3
:1003A80018148B178731E9276830200097008030B0
:1003B80096005608FF007E1009008131E3298C3031
:1003C8008400233085006430FE000030FF008F3148
:1003D800C52781312000E701E801E901EA01EB01C5
:1003E800EC01ED01EE01A0308400003085000F30F3
:1003F800FE000030FF008F31C52781312030840096
:10040800013085005030FE000030FF008F31C527D5
:100418007E1020008631602E78082000A000790820
:10042800A1007A08A2000310210D220DA3002308C1
:10043800A6007B08A0007C08A1007D08A20003108C
:10044800210D220DA3002308A50026080319382A28
:100458002508260203183F2A2603FF3A2507A0008D
:1004680019302002031C3F2A7B08F8007C08F90099
:100478007D08FA0008002508031908002608250247
:1004880003184E2A2503FF3A2607A0001930200238
:10049800031808000630A0002008A400FA1BA417BF
:1004A800FD1B2417F917FF30F805FF30F905003058
:1004B800FA05FC17FF30FB05FF30FC050030FD0591
:1004C8002508260203188A2A0130FB35FC0DFD0D8C
:1004D800890B692A0130A502250826060319852AF1
:1004E8000130A402240807390319852A682A013033
:1004F800FA36F90CF80C890B7C2A0130A000200888
:10050800A607260825060319AF2A7B2A26082502EE
:100518000318AF2A0130F835F90DFA0D890B8F2A27
:100528000130A602250826060319AB2A0130A402C9
:10053800240807390319AB2A8E2A0130FD36FC0C32
:10054800FB0C890BA22A0130A0002008A507260869
:100558002506031DA12AA41FC12AFF30F806FF3073
:10056800F906FF30FA060130F807003003180130A9
:10057800F907003003180130FA07241FD32AFF3087
:10058800FB06FF30FC06FF30FD060130FB0700309C
:1005980003180130FC07003003180130FD07A401DF
:1005A8007808FB077908FC3D7A08FD3DFD1FEE2A17
:1005B800FF30FB06FF30FC06FF30FD060130FB076D
:1005C800003003180130FC07003003180130FD0724
:1005D800A401A40A7B08F0007C08F1007D08F20061
:1005E8002608A0002008F3002408A1002108F40030
:1005F8008531AA257008F8007108F9007208FA0018
:1006080008000030F0000030F1000030F200200057
:100618002D08F3002E08F4002F08F5008631A126D6
:100628008331031C362B20002D08F0002E08F10022
:100638002F08F2000030F3000030F4000030F5001D
:100648008631A126833103182E2B21302100AD00DD
:100658000030AE0000302000AD000030AE000030A9
:10066800AF00080020002D08B6002E08B7002F089C
:10067800B8002D09B0002E09B1002F09B200B00A48
:100688000319B10A0319B20AC8303007BD006E3029
:10069800313DBE00BE30323DBF000130BF36BE0C1A
:1006A800BD0C890B522B0030B0008030B1000030F7
:1006B800B2003008B6023108B73B3208B83B043004
:1006C800B0003008B9003D08B3003E08B4003F0848
:1006D800B5003608F8003708F9003808FA003D0870
:1006E800FB003E08FC003F08FD008331F523833101
:1006F80078082000BA007908BB007A08BC003D08D9
:10070800F8003E08F9003F08FA003A08FB003B08E9
:10071800FC003C08FD008331F52383317808200074
:10072800BA007908BB007A08BC003D08F8003E080A
:10073800F9003F08FA003A08FB003B08FC003C08B7
:10074800FD008331F523833178082000BA00790849
:10075800BB007A08BC000030F800C030F9003F3018
:10076800FA003D08FB003E08FC003F08FD0083310D
:10077800F523833178082000BD007908BE007A0887
:10078800BF003A08A7003B08A8003C08A9003D089C
:10079800AA003E08AB003F08AC008731A027833190
:1007A80020002708BD002808BE002908BF00013026
:1007B800B902031D672B2D08F8002E08F9002F0831
:1007C800FA003D08FB003E08FC003F08FD008331AD
:1007D800F52378082000AD007908AE007A08AF004C
:1007E800080078082000A0007908A1007A08A20073
:1007F8000310210D220DA3002308A4002408031DC3
:100808000C2C0030F8000030F9000030FA00080025
:100818007B08A0007C08A1007D08A2000310210D20
:10082800220DA3002308A9002908031D222C00304B
:10083800F8000030F9000030FA00080029087B3E73
:10084800A0002008A4077808A0007908A1007A0869
:10085800A2001030A236A10CA00C890B2E2C200867
:10086800A3002308A9007B08A0007C08A1007D083C
:10087800A2001030A236A10CA00C890B3E2C200837
:10088800A3002308A9068030A0002008A905F917AD
:10089800FC17FF30FB05FF30FC050030FD0500307C
:1008A800A5000030A6000030A7000730A0002008EF
:1008B800A800781C652C7B08A5077C08A63D7D0848
:1008C800A73D0130FA36F90CF80C890B662C01307B
:1008D800FB35FC0DFD0D890B6C2C0130A802031DA6
:1008E8005D2C0930A0002008A800781C812C7B080A
:1008F800A5077C08A63D7D08A73D0130FA36F90C0E
:10090800F80C890B822C0130A736A60CA50C890B94
:10091800882C0130A802031D792C2508F000260830
:10092800F1002708F2002408A0002008F300290895
:10093800A1002108F4008531AA257008F800710883
:10094800F9007208FA00080020004008C4004108B5
:10095800C5004208C6000310450D460DC7004708EC
:10096800CD004D08031DC12C0030C3000030C2006B
:100978000030C1000030C00008004008C400410831
:10098800C5004208C6001730C636C50CC40C890B12
:10099800C82C4408C7004708C800C117FF30C00565
:1009A800FF30C1050030C2054008C9004108CA002F
:1009B8004208CB00CC018E30CD02CD1FFF2C4D0854
:1009C800803A8F3E0318F12C0030C3000030C2007B
:1009D8000030C1000030C00008000130CC36CB0C1C
:1009E800CA0CC90C890BF22C0130C4004408CD078D
:1009F8000319182DF12C18304D02031C152D003049
:100A0800C3000030C2000030C1000030C000080040
:100A18000130C935CA0DCB0DCC0D890B0D2D013018
:100A2800CD024D08031D0C2D48080319262DC909B0
:100A3800CA09CB09CC09C90A0319CA0A0319CB0A7E
:100A48000319CC0A4C08C3004B08C2004A08C1006D
:100A58004908C0000800AB30F7007708FD00AC304B
:100A6800F7007708FC00AD30F7007708FB00AE30E0
:100A7800F7007708FA00AF30F7007708F90022008E
:100A88000C120530F7007708F1007930F800780883
:100A9800F20010308731332785310530F7007708A9
:100AA800F1007930F8007808F2000A3087313327EE
:100AB8008531F101F10A01308F31D1278531F101FA
:100AC800F10A02308F31D12785310330F7007708DA
:100AD800F10003308F31D12785312F30F7007708A7
:100AE800F10004308F31D12785312C30F700770899
:100AF800F10005308F31D12785310630F7007708AE
:100B0800F10006308F31D12785317030F700770832
:100B1800F10007308F31D12785310530F70077088C
:100B2800F10011308F31D12785317A30F7007708FD
:100B3800F10000308F31D12785310630F700303091
:100B4800890BA42DF70BA42D003208007308031994
:100B5800B22D720871047004031DC32D0030F0001B
:100B68000030F1000030F20008000130F50075088F
:100B7800F3070130F236F10CF00C890BBE2DFE3074
:100B880072050319DC2DB92D0130F5007508F3073E
:100B98000130F007003003180130F1070030031866
:100BA8000130F2070130F236F10CF00C890BD72D29
:100BB800FF3072050319E92DC82D0130F302013009
:100BC800F035F10DF20D890BE42DF11BEF2D0230FC
:100BD80073020318E12D7318F72DFF30F0057F30ED
:100BE800F105FF30F2050310F30C7308F500F60168
:100BF800F7011030F535F60DF70D890BFE2D750848
:100C0800F0047608F1047708F20474080319080060
:100C1800F21708000030FC000030FB000030FA003A
:100C28000030F90073087204710470040319572E18
:100C3800FD01FD0AF31B2C2E0130F035F10DF20DEC
:100C4800F30D890B212E0130F8007808FD071E2EC0
:100C58000130F935FA0DFB0DFC0D890B2D2E7308AB
:100C68007702031D412E72087602031D412E71087A
:100C78007502031D412E70087402031C4C2E700867
:100C8800F4027108F53B7208F63B7308F73B7914D8
:100C98000130F336F20CF10CF00C890B4D2E0130BB
:100CA800FD02031D2C2E7C08F3007B08F2007A0855
:100CB800F1007908F00008008F31BB2786318731B1
:100CC800D527863187317E2786318F31EF278631C8
:100CD80021000E1022000E1021008E1022008E100E
:100CE80021000E1122000E1121008E1122008E11FA
:100CF80021000E1222000E1221008E1222008E12E6
:100D080021000E1322000E1321008E1322008E13D1
:100D180021008C1222008C1221000C1222000C12CD
:100D280021000D1222000D1221008D160D13220034
:100D38000D1321008D1763006C2EF21FB72E70095A
:100D4800F6007109F7007209F800F60A0319F70AA4
:100D58000319F80A00307607F0000030773DF100FB
:100D68008030783DF200F51FCD2E7309F600740926
:100D7800F7007509F800F60A0319F70A0319F80AC3
:100D880000307607F3000030773DF4008030783D7E
:100D9800F5008030F2068030F50675087202031DF2
:100DA800080074087102031D080073087002080027
:100DB8000030FB000030FA000030F9000030F80085
:100DC800701CEE2E7408F8077508F93D7608FA3D90
:100DD8007708FB3D0130F435F50DF60DF70D890B5D
:100DE800EF2E0130F336F20CF10CF00C890BF62ED5
:100DF8007308720471047004031DE42E7B08F30069
:100E08007A08F2007908F1007808F00008008E30BE
:100E1800FC007C08FD00FF307B0503191F2F013003
:100E2800FB36FA0CF90CF80C890B142F0130FC0076
:100E38007C08FD070F2F7808F0007908F1007A0880
:100E4800F2007D08FC007C08F300F4018531AA2536
:100E58007008F8007108F9007208FA000800F40038
:100E680022000E13740820388F31AA278731F50124
:100E7800F6017608803AF30080307302031D462F8E
:100E8800710875020318572F75087207F300730865
:100E98008600870101088F31AA2787310130F507BD
:100EA8000030F63D3D2F22000E170800F300220007
:100EB8000E13A0308F31AA278731F401730874020A
:100EC8000318752F74087107F200720886008701ED
:100ED80001088F31AA2787310130F2007208F40720
:100EE800622F22000E170C160830890B792F22006A
:100EF8000C120800200018101815981130309804AA
:100F0800C03098046830970080309600EC011814BF
:100F180011108B010B178B1721001114151795173A
:100F2800951215129511151095141511833020007E
:100F380095008B178B120800200029082804270425
:100F48000319A82F8030A9062A08F8002B08F900F1
:100F58002C08FA002708FB002808FC002908FD00D7
:100F68008231102278082000A7007908A8007A08A2
:100F7800A900080024009516910123008C018D0119
:100F88008E0121000D130D168E130E130C12220064
:100F98000E170C122400141715129413F03095052F
:100FA800080023008C018D018E0121000E108E1087
:100FB8000E118E110E128E120E138E138C120C122D
:100FC8000D128D120D138D13080023008C018D0155
:100FD8008E0121000E108E100E118E110E128E121F
:100FE8000E138E138C120C120D128D120D138D13FD
:020FF8000800EF
:101F5400F000700824009100141CAE2F1108080032
:101F6400F10022000E1371088F31AA2722000E17E8
:101F7400080021001908C33938389900FC30990544
:101F84001917991308006400800101310130FE0221
:101F94000030FF3B7F087E0403190034C62FF20093
:101FA40022000E13720820388F31AA278F3171084E
:101FB4008F31AA2722000E1708007030F30073082F
:101FC400F10007308F31D1278F31E2308F31B227C2
:101FD4008F31E1308F31B227080021009C019B0131
:101FE4001E169E121E171D159D151D169D121D13DE
:0C1FF4009E171E109E109D141D14080066
:020000040001F9
:04000E00FCC9CFDC7E
:00000001FF
