:040000008031C32860
:100008007E14803120007F08AC0082316A22803162
:100018008131DC2180312000111CBE2811108B1386
:1000280018102100111001302000A5070030A63D4E
:10003800063025062604031DB22822008C128231C0
:10004800342280314E302000AB00EB30890B2A2857
:10005800AB0B2A2882317D228031F0014830823171
:100068000422803100308231602280318231852241
:100078008031F001F00A48308231042280310130A9
:100088008131F02180312000AB002B08B200003014
:100098008131F02180312000AB002B08B300823180
:1000A8009D22803122008C160C1281319B218031D7
:1000B8008031D52080318231162280317030200085
:1000C800AB002B08F1000730823126228031063040
:1000D8002000AB003030890B6F28AB0B6F28000075
:1000E80022000C166430890B7728203086000030F7
:1000F80087002D3084000030850005302000AB00DB
:1001080016001A00AB0B8428AD01AD0A0530AB0010
:100118002B08AE003208AB002B08AF003308AB0049
:100128002B08B0002D30AB002B08F10005308131D1
:10013800772180310D302000AB00FB30890BA228DD
:10014800AB0BA2280032823116228031F101003037
:100158008231262280312000A501A6011814111031
:10016800210011148B175F3020009700E0309600B3
:100178008231562220002C08FF007E1009008031B1
:10018800C5282000A001A101A201A301A401A50185
:10019800A601A701A801A901AA017E1020008231A9
:1001A800412AAB30F7007708FD00AC30F70077083C
:1001B800FC00AD30F7007708FB00AE30F700770899
:1001C800FA00AF30F7007708F90022000C1205306A
:1001D800F7007708F1007930F8007808F20010305D
:1001E8008131502180310530F7007708F1007930EE
:1001F800F8007808F2000A30813150218031F1018D
:10020800F10A0130823126228031F101F10A0230EF
:100218008231262280310330F7007708F10003305D
:100228008231262280312F30F7007708F100043020
:100238008231262280312C30F7007708F100053012
:100248008231262280310630F7007708F100063027
:100258008231262280317030F7007708F1000730AC
:100268008231262280310530F7007708F1001130FD
:100278008231262280317A30F7007708F100003089
:100288008231262280310630F7003030890B4A2926
:10029800F70B4A2900320800F40022000E137408F4
:1002A8002038823195228131F501F6017608803AAD
:1002B800F30080307302031D632971087502031867
:1002C800742975087207F30073088600870101080E
:1002D8008231952281310130F5070030F63D5A29E7
:1002E80022000E170800F30022000E13A0308231FE
:1002F80095228131F4017308740203189229740855
:100308007107F20072088600870101088231952280
:1003180081310130F2007208F4077F2922000E179C
:100328000C160830890B962922000C1208002400AC
:100338009516910123008C018D018E0121000D136A
:100348000D168E130E130C1222000E170C12240019
:10035800141715129413F030950508002000181092
:100368001815981130309804C03098045F30970001
:10037800E0309600A701A801181411108B010B1783
:100388008B1721001114080023008C018D018E01A8
:1003980021000E108E100E118E110E128E120E13D9
:1003A8008E138C120C120D128D120D138D13080062
:1003B80023008C018D018E0121000E108E100E116C
:1003C8008E110E128E120E138E138C120C120D1229
:1003D8008D120D138D130800F1002400961596193F
:1003E800F3291108F0007008F2001418F9297108AF
:1003F8000319002A9612012A961616167208080082
:10040800F2007235F1007108F3007008F10071080C
:10041800F30782318D228231730824009100141C65
:100428000800132A7030F3007308F1000730823196
:1004380026228231E230823174228231E1308231E7
:1004480074220800F20022000E137208203882314C
:100458009522823171088231952222000E170800F8
:1004680021000D160D1724009101940128309500E4
:100478009701043092009601080082314C228231A3
:100488008131C82182318131B221823163004A2A07
:10049800C330210099051908FC390138990019174A
:1004A80099130800C330210099051908FC3901384F
:1004B8009900191799130800F00082318D228231B2
:1004C800700824009100141C0800672A21001908EC
:1004D800C33938389900FC30990519179913080061
:1004E800F10022000E1371088231952222000E17A6
:1004F800080082318D22823124001614161C08004F
:10050800822A82318D22823124009614961C08009A
:100518008A2A240016081F39031D8D2A141D080075
:100528008D2AF000700824009100141C992A1108E3
:0C053800080024001615161D08009F2A5C
:020000040001F9
:04000E00E4E9FFDC46
:00000001FF
