:020000040010EA
:1020000000000040B5DE1000A1DE1000EDAE1000B3
:10201000A5DE1000A7DE1000A9DE10000000000001
:1020200000000000000000000000000011DE1000B1
:10203000ADDE10000000000079DE100089DE100027
:10204000EFAE1000F3AE1000B3DE1000FDAE1000D6
:10205000FBAE100009AF1000F7AE100005AF100086
:10206000B3DE1000B3DE1000B3DE100011AF1000BD
:10207000B3DE100001AF10000FAF1000B3DE100090
:10208000B3DE10000DAF10000BAF1000B3DE100078
:10209000044B05481B1A062B02D9044B03B1184701
:1020A000704700BFE342FF3FE042FF3F00000000F7
:1020B00005490648091A891001EBD171491002D06F
:1020C000034B03B118477047E042FF3FE042FF3F38
:1020D0000000000010B5064C237843B9FFF7D8FF85
:1020E000044B13B10448AFF300800123237010BDEB
:1020F000E042FF3F0000000058A4110008B5084B63
:102100001BB108490848AFF300800848036813B9B9
:10211000BDE80840CCE7064B002BF9D09847F7E71D
:1021200000000000E442FF3F58A41100E042FF3FDE
:102130000000000038B5064D002404F5B4702844B2
:10214000183C0BF0B5FF14F5C07FF6D138BD00BFC9
:10215000FC42FF3F10B50446054A08302060114696
:102160000BF0BCFF2268002363601370204610BD93
:10217000ED6411000C4B1B6803600C4B1B68436043
:102180000B4B1B6883600B4B1B68C3600A4B1B68BF
:102190000B600A4B1B684B60094B1B688B60094B3B
:1021A0001B68CB60704700BFB440FF3FB840FF3FA3
:1021B000BC40FF3FC040FF3FA440FF3FA840FF3F5F
:1021C000AC40FF3FB040FF3F10B52B48FFF7C2FFC8
:1021D0002A4A2B4928480BF07EFA2A4B002203F5A5
:1021E000C070194643F8042C43F8083C01F8182B3A
:1021F00019615A611A76303383424FF00004F0D1EE
:102200001E4A214920460BF066FA2048FFF7A2FF3C
:102210001A4A1B491D480BF05EFA1D48FFF79AFF4A
:10222000164A17491A480BF056FA1A48FFF792FF58
:10223000124A134917480BF04EFA17480BF04EFCA0
:102240000E4A164914480BF046FA15480721046057
:102250000471846006F080F9124810210460047152
:10226000846006F079F910480E21046004718460DE
:10227000BDE8104006F070B97C44FF3FA040FF3F2E
:10228000E5E110000443FF3F35211000B844FF3F53
:102290009444FF3F1C45FF3FEC44FF3FF7DA10003A
:1022A000AC44FF3FE044FF3FD044FF3F0020704775
:1022B000836901221B68002083F8592070478369D5
:1022C00001221B68002083F85820704700207047C7
:1022D000014B01221A6070474482FF3F0368184790
:1022E00008B10B68036070477047000038B5064DB1
:1022F000002404F5B4702844183C0BF0D9FE14F502
:10230000C07FF6D138BD00BFD045FF3F7047000009
:1023100008B5044904480BF095FB044B01221A60F0
:1023200008BD00BF006011008481FF3F6082FF3F55
:1023300010B50446403005F099FC204610BD000061
:1023400073B5044616460D4601B9BAB9731B0F2B77
:10235000019307D9002201A920460BF08DFE019BB5
:102360002060A3603246294620680BF0B7FE019B2F
:10237000226800216360D15402B070BD01480BF0A7
:102380006CFE00BF1460110038B500F1080304466C
:1023900003600D4621B108460FF005FA2A1801E046
:1023A0004FF0FF3220462946FFF7CAFF204638BDCE
:1023B00030B505468DB0846902AB0A446846009387
:1023C000FFF7BEFF2468694606A8AD8A0BF0D6FF6A
:1023D000204606A940F8045B0BF085FE06A80BF02A
:1023E00067FE68460BF064FE00200DB030BD10B5EE
:1023F00084698CB002AB0A4468460093FFF7A0FFE3
:102400002468694606A80BF0B9FF06A904F11C0070
:102410000BF069FE06A80BF04BFE68460BF048FE79
:1024200000200CB010BD10B50446002303600371FA
:10243000836006F091F8204610BDF8B50446C06DE3
:1024400008B10DF025FD0025A26BE36B9B1AB5EBDF
:10245000A30F14D252F82560AF002EB130460BF016
:1024600027FE30460BF078F9636CDE592EB130460A
:102470000BF01EFE30460BF06FF90135E4E7606C9F
:1024800008B10BF069F9A06B08B10BF065F904F124
:102490001C000BF00DFE201D0BF00AFE2046F8BDBF
:1024A0002DE9F0410646876BC36B0022DB1B9D10B4
:1024B000AA422BD057F82230DFF854E018684FEAD0
:1024C000820C013810F8011FA1F14103192B88BFBC
:1024D0000C461EF8013F98BF01F12004A3F141080A
:1024E00098BFE4B2B8F1190F9CBF2033DBB2A3420E
:1024F0000AD10029E6D1736C53F80C3018680DF03E
:1025000067F97065BDE8F0810132D1E7BDE8F0817F
:102510003D60110038B5044685692868FFF7C0FFA3
:102520002B68A27D002083F8342038BD2DE9F041CE
:10253000044688B008460F460FF035F96B46014651
:102540000022384605F048F96D460026BDF80030F7
:102550003341DB070CD5B5F80680012108EB0100FB
:102560000DF03AF9A988424639440DF0B6FC03E073
:10257000012108460DF030F9062E0FD8DFE806F0ED
:1025800004060E080A0E0C00606009E0A06007E077
:10259000E06005E0206103E0606101E00DF078FC9F
:1025A0000136072E05F10405D0D1BDF80230238095
:1025B0004BB90C4960680FF0E4F810B940F2BB1356
:1025C00000E050232380E3681B7833B90121022007
:1025D0000DF002F92F23E0600370204608B0BDE83B
:1025E000F08100BF4D601100C36810B504460BB107
:1025F0009B689847204610BD38B505460446064BF3
:1026000045F8283B0AF0CAF92846FFF7EDFF2046B7
:102610000AF088FA204638BDA897110010B5044684
:10262000FFF7EAFF20460BF097F8204610BD0000A8
:1026300070B50546074B064645F8103B45B100F11D
:102640003004AC4204D0103C2046FFF7CDFFF8E741
:10265000304670BD7097110010B50446FFF7E8FFD3
:1026600020460BF079F8204610BD000010B5044656
:102670000A4B4C3003F1200240F84C3C7C3340F8CC
:10268000182C40F8143C0BF036FA04F134000BF02F
:10269000C7F92046FFF7CCFF204610BDE496110095
:1026A000A0F13400E2E7A0F13800DFE738B5CB68ED
:1026B00004460D460BB15B689847EB682046E36023
:1026C00038BD38B5CB6804460D460BB15B689847FA
:1026D000EB682046E36038BDC36810B504460BB113
:1026E0009B689847204610BDF8B507460C4694B144
:1026F000E1683846FFF7F8FF04F1100604F12800FE
:10270000A5680BF0D5FC30460BF0D2FC20460BF050
:1027100023F82C46EBE7F8BD38B5856A04462DB1A1
:102720002846FFF78AFE28460BF016F8256AB5B151
:10273000686808B10DF0ACFBA86808B10DF0A8FB03
:10274000E86808B10DF0A4FB286908B10DF0A0FB02
:10275000686908B10DF09CFB28460AF0FDFF656A28
:102760003DB105F108002969FFF7BEFF28460AF0D0
:10277000F3FF606828B194F82C3013B103685B68EC
:10278000984704F10C00FFF7A7FF204638BD000072
:10279000C36870B504460D4616462BB940F28B62ED
:1027A0000549064805F0FCFFE36832462946204605
:1027B000BDE870401B681847536011008B60110022
:1027C0008069F8B504680F46236E154613442366E6
:1027D00003691BB10430FFF7DBFF31E0606D18B90E
:1027E00012B1012384F85830E36D2BB994F85830B6
:1027F00013B90DF045FBE06594F85830B3B1E66DC0
:1028000026B928460DF03CFBE0650FE0616E3046CE
:1028100029440EF0EDFDE06540B9616E0948294498
:102820000EF04EFD30460DF033FB09E0636EE06DB7
:102830002A46184439460DF050FB636E1D44656608
:102840000020F8BD90601100F8B5436804680546A3
:102850001C1BA41014BF23460123E4180F4602D208
:10286000B4F1804F21D36FF04044A0000AF058FF2C
:10287000064695E80C009B1A3A68DE4218BFF250F3
:1028800095E882007F1ABB0803D03A4630460DF027
:102890002FFB28680437374408B10AF05DFF06EBC8
:1028A000840485E8C000AC60F8BD002CDDD126466C
:1028B000DFE738B5426885680346AA4206D0096852
:1028C00002B111605A6804325A6038BDFFF7BCFF8C
:1028D00038BD30B5846993B002AB0A4468460093B2
:1028E000FFF72EFD2468694606A80BF047FD00237C
:1028F00084F8503094F85130B3B1626CA36C0CA8DA
:102900009B1A9B10013B52F8235029460BF036FDD1
:1029100006A90CA80BF08EFC28460CA90BF08FFC26
:102920000CA80BF0C5FB0CE018200AF0F9FE0546D8
:1029300006A90BF023FD0CA904F144000C95FFF748
:10294000B8FF012384F8513006A80BF0B1FB6846AC
:102950000BF0AEFB002013B030BD30B5846993B0EE
:1029600002AB0A4468460093FFF7EAFC2468694614
:1029700006A80BF003FD002384F8513094F8503082
:10298000B3B1A26BE36B0CA89B1A9B10013B52F8EE
:10299000235029460BF0F2FC06A90CA80BF04AFCC8
:1029A00028460CA90BF04BFC0CA80BF081FB0CE0AB
:1029B00018200AF0B5FE054606A90BF0DFFC0CA9AD
:1029C00004F138000C95FFF774FF012384F85030B0
:1029D00006A80BF06DFB68460BF06AFB002013B0F5
:1029E00030BD08B50BF097FCC00F08BD2DE9F041D4
:1029F0000F4690468D6804460E1D01205DB105F11D
:102A000010014046FFF7EDFF18B1AB682E461D469A
:102A1000F4E7EB68FAE748B1FB689E4201D1256014
:102A20000DE030460BF0B4FA054600E0354641466D
:102A300005F11000FFF7D5FF18B100232360666091
:102A400001E0256060602046BDE8F0812DE9F74394
:102A500000F104098945074616460C460BD1436927
:102A6000002B74D00569114605F11000FFF7B9FF7E
:102A7000002874D16BE001F1100841461046FFF7C1
:102A8000B0FF0546A0B1FB68A3420FD020460BF073
:102A90007FFA314605461030FFF7A3FF002856D0D5
:102AA000EB68002B14BF2546002427E0254625E0CF
:102AB00031464046FFF795FF002844D03B69A342CA
:102AC00019D020460BF051FA804600F11001304633
:102AD000FFF787FF30B1E368002B14BF44464FF087
:102AE000000809E0324639466846FFF77FFFDDF807
:102AF0000080019C00E0A846254644461DB344B929
:102B0000A94506D005F110013046FFF76AFF80465F
:102B100001E04FF0010840200AF002FE04461030A8
:102B200008D031460BF044FB06F1180104F12800EF
:102B30000BF03EFB4B462A46214640460BF02AFA54
:102B40007B6901337B61204603B0BDE8F0833246E8
:102B500039466846FFF74AFF9DE83000CEE7002D72
:102B6000CED12C46EFE72DE9F04300F10C070546E6
:102B7000884691463E4604698FB064B1414604F1EF
:102B80001000FFF72EFF18B9A36826461C46F4E78D
:102B9000E3683446F9E7B7420BD006F1100140462E
:102BA000FFF71FFF28B9494606F128000BF09BFAF2
:102BB00016E0414602A80BF0E1FB494608A80BF0DD
:102BC000DDFB08350EAB43F8345D02AA39462846D2
:102BD000FFF73CFF08A80BF06BFA02A80BF068FAAD
:102BE0000FB0BDE8F0830000F0B504468DB002726E
:102BF000016012990C301F46FFF763FD139B0026FE
:102C0000E3612663A66218200AF08AFD054639466C
:102C1000FFF78CFC256220200AF082FD0546236A1E
:102C2000227A00F10C0743600270314610223846C8
:102C30000DF079F9EE616F61AF61114906A8FFF7F8
:102C4000A3FB6B6868469968FFF79EFB6A4606A976
:102C50002846FFF788FF68460BF02AFA06A80BF013
:102C600027FA6562B0200AF05BFD05460AF0D6F946
:102C700020460123656084F82C300DB0F0BD00BF04
:102C8000BC6011002DE9F04F054695B0007816465E
:102C90001F46884604F076FD2B780446DA1E012A8A
:102CA00001D903B1C6B133464C4A0A2105A80EF03A
:102CB000A3FC4B490EA8FFF767FB05A908A8FFF77F
:102CC00063FB08AA0EA92846FFF74DFF08A80BF0E2
:102CD000EFF90EA80BF0ECF900233B6020460EF054
:102CE00062FDD5F804B08146DBF80CA050460EF02A
:102CF0005AFDDBF810B081449BF8000018B158462B
:102D00000EF051FD013009F10C094844D5F814903A
:102D1000386005F10C039945039338680DD0D9F854
:102D2000142004301044D9F82C2002443A6048465C
:102D30000BF01BF9039B8146EDE73044031D3B601C
:102D4000012105300CF048FD9BF800300746CDF816
:102D500000B01BB153462246224902E053462246A8
:102D600021490EF07BFC20460EF01DFD6C6882466A
:102D7000E0680EF018FD8244206904781CB10EF062
:102D800012FD013000E020460AF10C0420446D6978
:102D90003C18A9450FD0AB6A2A69144920460EF0A9
:102DA0005DFC6A69EB6A2846134404331C440BF04B
:102DB000DCF80546EDE720460D490EF0ECFC023448
:102DC00026B13246414620460DF087F80849A01941
:102DD0000EF0E1FC384615B0BDE8F08FD0A211002E
:102DE000C1601100D0601100E4601100F7601100B3
:102DF000EB6411002DE9F047876A8EB004460D465A
:102E000090461FB17B4B00270363EEE090F82C3017
:102E100007639BB141C803681B6B984709F0D4FE58
:102E20000146304609F054FF30B9236A60681A88B9
:102E300099680AF061F908B12063D6E00EAB00266C
:102E400043F8346D42462946606AFFF71BFF019A3A
:102E50000146804660680AF07FF9054640460DF05D
:102E600017F8019B9D4201D02563BEE068200AF05F
:102E700057FC054600F10C03436004F10C0800F117
:102E80002403C36186600673066280F8246086634B
:102E9000C663066446648664C664066080F8506053
:102EA00080F85160466580F8586080F85960066681
:102EB0004666C665A062414602A8FFF702FC0DF116
:102EC000380902A907A849F8205DD4F81CA0FFF72B
:102ED000F8FB28200AF024FC0546282231460DF094
:102EE00022F8454B20202B60444B0D956B60444BE2
:102EF000CDF82CA0AB60434BEB60434B2B61434BB5
:102F00006B61434B2B62434B6B62434BAB61434B57
:102F1000EB610AF005FC0546202231460DF003F86E
:102F2000012128460C9504F039FC0B9A0C9B022ACF
:102F300008BF1A88C3F8189004BF42F480721A8040
:102F400002A8FFF7C9FB4FF400600CF099FF05469B
:102F50004FF40062294660680AF04CF9061E1DDD38
:102F6000E369012B0FD00D9933462A460C9802F0E5
:102F70008FFE864201460BD0324629480EF0A0F95A
:102F8000284B23630FE0324629464046FFF700FCFA
:102F9000A36A93F85930002BDAD008E007D0224812
:102FA0000EF01EFA266328460CF072FF12E0E36969
:102FB000012B05D000231A460D990C9802F068FEEB
:102FC00028460CF065FF94F82C3013B1606809F0C6
:102FD00059FEA76A0C9808B10AF0BEFB0D9808B11B
:102FE0000AF0BAFB07A8FFF777FB38460EB0BDE83A
:102FF000F08700BFCCF7FFFFAD221000EF231000D9
:10300000B12310005B291000D328100015251000F3
:10301000BF221000CD221000C1271000B1221000E5
:1030200000611100CBF7FFFF3961110000000000C3
:103030002DE9F04F8C49ADF5697D00248B4817943C
:103040000AF000FD00942346894A8A498A4805F01F
:10305000D3F830B1894985480AF0F4FC012002F028
:1030600044B9874981480AF0EDFC834805F000F92E
:10307000844902467D480AF0E5FC0121824807F0B8
:1030800091FF0221814804F0F9FE38B18049774868
:103090000AF0D8FC4FF0FF3002F027B97D497348A1
:1030A0000AF0D0FC7C497D4804F0E8FD7C496F487B
:1030B0000AF0C8FC7B4802F01BFB024620B17A49AB
:1030C0006A480AF0BFFC03E0784968480AF0BAFC95
:1030D000774B20AC84AD2360764B21462846E360D5
:1030E000FFF7E4FA7448FFF77FFA29467248FFF7C2
:1030F000DDFA5BA3D3E90023704809F037FC2846CA
:10310000FFF772FA2046FFF76FFA6D4957480AF049
:1031100099FC29462046FFF72DF86A4F00263B68A8
:103120009E4213DB0023139310930F930E93664B71
:103130004FF0000B5E46DA46CDF854B0CDF850B0F3
:10314000D9461293CDF844B05C4656E054F8262098
:103150005E49013645480AF075FC55F826205C4961
:1031600042480AF06FFCDAE7EFB247F0400207216D
:103170004C4802F094FAAB0605D547F0200207212F
:10318000484802F08CFA18AA0521464802F024FBB0
:10319000E221444802F026FA9DF86050012D40F0EB
:1031A000A5804C4931480AF04DFC9DF861204A4900
:1031B0002E480AF047FC9DF86130022B18D19DF88B
:1031C00063309DF86200AA4603EB002000110BF06B
:1031D0007DFB0022414B0BF0DFFB0BF077FE1390E1
:1031E0000BF086FB02460B4620483D490AF02AFCBC
:1031F0003C4B1F68012F00F005827B2200212948EB
:1032000002F04DFA2C220521264802F048FA072147
:10321000244802F028FA0023054617A91B488DF818
:1032200060308DF861308DF862308DF863308DF844
:1032300064308DF868308DF869308DF86A308DF81B
:103240006B308DF86C3004F08FFE27490F4804F086
:10325000F7FE6A068046CBD586E700BFAFF3008055
:1032600000E1F505000000006D6111008481FF3F61
:10327000826111008F6111009048FF3F9861110039
:10328000BC611100D86111004481FF3F8047FF3FBE
:10329000F56111001462110011231000CC81FF3F71
:1032A000266211000081FF3F386211006F62110039
:1032B000D1221000F45F1100F881FF3FD081FF3F61
:1032C0009B621100C440FF3FED641100B062110029
:1032D000CA621100F3621100166311000000B03FD2
:1032E0002E6311004482FF3F6666F640022D40F0D7
:1032F0009380AF49AF480AF0A5FB9DF86120AE4925
:10330000AC480AF09FFB9DF861300E2B28D1AB49E9
:10331000A8480AF097FBBDF862000BF0E1FE0BF045
:10332000E7FA9FA3D3E900230BF036FB0BF0CEFDA9
:103330000BF0DEFA9CA3D3E900230BF057FC00222C
:103340009F4B0BF029FB0BF0C1FD0E900BF0D0FA58
:1033500002460B4697489B490AF074FB4FF001095F
:103360009DF86130082B28D1974992480AF06AFBF2
:10337000BDF862000BF0B4FE0BF0BAFA88A3D3E9F3
:1033800000230BF009FB0BF0A1FD0BF0B1FA86A3B3
:10339000D3E900230BF02AFC0022894B0BF0FCFA46
:1033A0000BF094FD0F900BF0A3FA0B4602468749F1
:1033B00080480AF047FB012314939DF861300D2BE0
:1033C0007FF416AF82497B480AF03CFBBDF86200EF
:1033D0000BF086FE0BF08CFA71A3D3E900230BF0FF
:1033E000DBFA0BF073FD0BF083FA6FA3D3E9002334
:1033F0000BF0FCFB0022724B0BF0CEFA0BF066FDDB
:1034000010900BF075FA0B460246724969480AF0B3
:1034100019FB01231593EBE6032D1ED16E49654878
:103420000AF010FB9DF86120634962480AF00AFB2C
:103430009DF862B0BBF1010F05D168495D480AF003
:1034400001FB5E46D4E6BBF1000F7FF4D1AE6449C8
:1034500058480AF0F7FA0126CAE61E2D7FF4C8AED6
:10346000604954480AF0EEFA9DF861205E495148DF
:103470000AF0E8FA9DF862205B494E480AF0E2FA49
:103480009DF8632058494B480AF0DCFA9DF8642007
:10349000554948480AF0D6FA9DF862309DF86150C7
:1034A0001B0443EA05639DF8645050492B439DF883
:1034B0006350404843EA05252A460AF0C3FA4C4BBC
:1034C0000122186800231C4620AF0DF5047E8342BC
:1034D0000BDA57F8231001338D4201BF5EF822103A
:1034E0001192129101240132F1E74CB34149314864
:1034F0000AF0A8FA7A2200213F4802F0D0F82822E8
:1035000005213D4802F0CBF8702207213A4802F02D
:10351000C6F846231AAA052137488DF868308DF879
:10352000694002F089F9354922480AF08BFAE22114
:10353000314802F057F8E1212F4802F053F857E6DE
:103540002F491C480AF07EFA7A2200212A4802F00C
:10355000A6F828220521284802F0A1F870220721A8
:10356000254802F09CF8002446231AAA0521224887
:103570008DF868308DF8694002F05EF91F490D48FA
:103580000AF060FAE2211C4802F02CF8E1211A4806
:1035900002F028F8849B11941293012428E600BFBE
:1035A000B81E85EB51B808406666666666366340AD
:1035B0004F6311008481FF3F166311007263110095
:1035C00000806B4092631100B8631100D863110052
:1035D000FE6311001E641100446411006764110051
:1035E000806411009B641100BA641100C36411006F
:1035F000C440FF3FD76411000081FF3FEE6411001B
:10360000F664110040460BF00FFF159B8046AB4D52
:10361000002B00F05987149B002B00F0C183BAF1F6
:10362000000F00F0A881B9F1000F00F00A81002E10
:1036300000F09380002C57D000240021A04807F010
:10364000B1FC10982C700BF053F9CDE90C010F98D8
:103650000BF04EF9129BCDE90A010893119BCDF8AE
:1036600018B00793974B0E981B68CDF81080059300
:103670000BF03EF9CDE9020113980BF039F9924AAB
:10368000CDE90001914928460DF0E8FF34201F9450
:103690000AF046F80DF170098D492B463A4601941F
:1036A000CDF800908046FFF79FFA4846FFF714F8E0
:1036B000884989480AF0C6F9884987480AF0C2F95A
:1036C000874985480AF0BEF9224621464046FFF761
:1036D00091FB844980480AF0B5F9B8F1000F41F038
:1036E000F185002401F0F6BD2146754807F05AFC2B
:1036F00010982C700BF0FCF8CDE90A010F980BF034
:10370000F7F8CDE908016F4BCDF818B01B680E989B
:103710000593CDF810800BF0EBF8CDE9020113987A
:103720000BF0E6F8684ACDE900016F4928460DF034
:1037300095FF34201F9409F0F3FF0DF170096449DF
:103740002B463A460194CDF800908046FFF74CFA9C
:103750004846FEF7C1FF65492EE2002C3AD03146BB
:10376000574807F01FFC10982E700BF0C1F8CDE9F8
:103770000A010F980BF0BCF8129BCDE908010793E2
:10378000119B0E9806934F4B1B68CDF81080059344
:103790000BF0AEF8CDE9020113980BF0A9F84A4AF4
:1037A000CDE90001524928460DF058FF34201F96FC
:1037B00009F0B6FF0DF1700845492B463A460196CF
:1037C000CDF800800446FFF70FFA4046FEF784FF6D
:1037D0004849B0E221463A4807F0E4FB10982C70C3
:1037E0000BF086F8CDE908010F980BF081F8CDE9D0
:1037F0000601344B0E981B68CDF8108005930BF032
:1038000077F8CDE9020113980BF072F82E4ACDE952
:103810000001394928460DF021FF34201F9409F09A
:103820007FFF0DF170092A492B463A460194CDF8E5
:1038300000908046FFF7D8F94846FEF74DFF2F4924
:10384000BAE1002C60D049461D4807F0ABFB109848
:1038500085F800900BF04CF8CDE908010F980BF0BB
:1038600047F8129BCDE906010593164B13981B6888
:10387000CDF80C800493119B0DF1700802930BF0AE
:1038800037F8114ACDE900011D4928460DF0E6FE42
:103890003420CDF87C9009F043FF2B463A460C4982
:1038A0008DE800030446FFF79FF94046FEF714FF3A
:1038B000144909480AF0C6F80849BBE38147FF3FAD
:1038C0004481FF3F6082FF3F0B6511001C651100C2
:1038D0009448FF3FA46511008481FF3FBA65110041
:1038E000D4651100EE651100F66511006A661100DD
:1038F0008C6611000A67110030671100996711008A
:10390000CB6711003F681100002E00F07F81214637
:10391000AC4807F047FB10982C700AF0E9FFCDE99E
:1039200008010F980AF0E4FFCDE90601A64BCDF897
:1039300010B01B6813980393CDF808800AF0D8FFE5
:10394000A24ACDE90001A24928460DF087FE3420A5
:103950001F9409F0E5FE0DF170099E492B463A4689
:103960000194CDF800908046FFF73EF94846FEF7F7
:10397000B3FE99499DE6B9F1000F00F0AD80002E2D
:1039800072D0002C3CD051468E4807F00BFB1098AB
:1039900085F800A00AF0ACFFCDE90A010F980AF003
:1039A000A7FF129BCDE908010693119BCDF810B03B
:1039B0000593854B0E981B68CDF8088003930AF099
:1039C00097FF824ACDE90001844928460DF046FE62
:1039D0003420CDF87CA009F0A3FE0DF170082B4631
:1039E0003A467C498DE800050446FFF7FDF840465D
:1039F000FEF772FE7A497B480AF024F87A498EE392
:103A00002146704807F0CEFA10982C700AF070FF2B
:103A1000CDE908010F980AF06BFFCDE906016A4B6A
:103A2000CDF810B01B680E980393CDF808800AF00B
:103A30005FFF664ACDE900016C4928460DF00EFE95
:103A400034201F9409F06CFE0DF1700961492B467A
:103A50003A460194CDF800908046FFF7C5F84846F5
:103A6000FEF73AFE6249A7E0002C74D03146554873
:103A700007F098FA10982E700AF03AFFCDE9080185
:103A80000F980AF035FF129BCDE906010593119BB3
:103A90000E9804934C4B0DF170091B68CDF808800B
:103AA00003930AF025FF494ACDE900015149284610
:103AB0000DF0D4FD34201F9609F032FE45492B4607
:103AC0003A460196CDF800908046FFF78DF84846BB
:103AD000FEF702FE4849CAE0002C00F0CD80002E1F
:103AE00000F0FA804946374807F05CFA109885F8EC
:103AF00000900AF0FDFECDE906010F980AF0F8FEED
:103B0000129BCDE9040103932F4BCDF808B01B683D
:103B10002E4A3A490193CDF80080119B28460DF0BA
:103B20009DFD3420CDF87C9009F0FAFD0DF1700A6E
:103B30002B463A462749CDF80490CDF800A08046A0
:103B4000FFF752F85046FEF7C7FD2D49254809F00A
:103B500079FF2549A4E321461A4807F023FA109873
:103B60002C700AF0C5FECDE906010F980AF0C0FEE0
:103B7000CDE90401144B0E981B68CDF8088003931F
:103B80000AF0B6FE114ACDE900011E4928460DF0A3
:103B900065FD34201F9409F0C3FD0DF170090D4936
:103BA0002B463A460194CDF800908046FFF71CF86A
:103BB0004846FEF791FD14490A4809F043FF0A49B7
:103BC000FFE100BF4481FF3F6082FF3F0B651100B2
:103BD000716811009448FF3FDB681100096911000A
:103BE000876911008481FF3FBA651100A669110041
:103BF000106A11003B6A1100AF6A1100DD6A110002
:103C0000516B11007C6B1100DC6B11003146A54833
:103C100007F0C8F910982E700AF06AFECDE9060187
:103C20000F980AF065FECDE904019F4B13981B68BD
:103C3000CDF8088003930AF05BFE9C4ACDE90001B1
:103C40009B4928460DF00AFD34201F9609F068FDB7
:103C50000DF1700997492B463A460196CDF8009030
:103C60008046FEF7C1FF4846FEF736FD924993486D
:103C700009F0E8FE924972E3002E61D0214689489E
:103C800007F090F910982C700AF032FECDE904018B
:103C90000F980AF02DFECDE90201834B834A1B6881
:103CA00088490193CDF800805B4628460DF0D6FC8C
:103CB00034201F9409F034FD0DF170097D492B4625
:103CC0003A460194CDF800908046FEF78DFF4846B5
:103CD000FEF702FD7C496FE73146724807F062F952
:103CE00010982E700AF004FECDE906010F980AF034
:103CF000FFFD129BCDE9040102936B4B6B4A1B68DD
:103D000072490193CDF80080119B28460DF0A6FC66
:103D100034201F9609F004FD0DF1700865492B460B
:103D20003A460196CDF800800446FEF75DFF404616
:103D3000FEF7D2FC6649614809F084FE604969E3F8
:103D40003146584807F02EF910982E700AF0D0FD31
:103D5000CDE904010F980AF0CBFDCDE90201524BE9
:103D6000524A1B685B490093284643460DF076FC97
:103D700034201F9609F0D4FC0DF170092B463A4609
:103D80004C490196CDF800908046FEF72DFF48463D
:103D9000FEF7A2FC5049494809F054FE484965E342
:103DA000BAF1000F00F07F81B9F1000F00F00F8130
:103DB000002E00F09D80002C40D01499394807F067
:103DC000F1F89DF8503010982B700AF091FD129B7D
:103DD000CDE90A010893119BCDF818B00793324B37
:103DE0000E981B68CDF8108005930AF081FDCDE98F
:103DF000020113980AF07CFD2C4ACDE900013749F5
:103E000028460DF02BFC149B34201F9309F088FCEE
:103E1000149B0DF170083A4626490193CDF80080B5
:103E20002B460446FEF7E0FE4046FEF755FC2C49C3
:103E3000224809F007FE2B4900F012BF214619481D
:103E400007F0B0F810982C700AF052FDCDE9080187
:103E5000154BCDF818B01B680E980593CDF810805F
:103E60000AF046FDCDE9020113980AF041FD0F4A20
:103E7000CDE900011C4928460DF0F0FB34201F94C9
:103E800009F04EFC0DF170090A492B463A4601949F
:103E9000CDF800908046FEF7A7FE4846FEF71CFCD2
:103EA00012498EE04481FF3F6082FF3F0B651100A5
:103EB000176C11009448FF3F776C11008481FF3F1D
:103EC000BA651100B56C1100156D11004C6D110033
:103ED000B66D1100F16D1100476E11008E6E11006C
:103EE000A4651100D46511000C6F11006A66110001
:103EF000002C35D03146A44807F054F810982E70A5
:103F00000AF0F6FC129BCDE908010793119B0E986D
:103F100006939E4B1B68CDF8108005930AF0E8FCD1
:103F2000CDE9020113980AF0E3FC994ACDE90001BA
:103F3000984928460DF092FB34201F9609F0F0FBBB
:103F40000DF1700894492B463A460196CDF8008051
:103F50000446FEF749FE4046FEF7BEFB8F4959E294
:103F60002146894807F01EF810982C700AF0C0FC12
:103F7000CDE90601854B0E981B68CDF8108005939E
:103F80000AF0B6FCCDE9020113980AF0B1FC804AB0
:103F9000CDE90001824928460DF060FB34201F94D2
:103FA00009F0BEFB0DF170097B492B463A4601949E
:103FB000CDF800908046FEF717FE4846FEF78CFBD2
:103FC0007849794809F03EFD784901F007B9002C9D
:103FD00036D049466C4806F0E5FF109885F8009009
:103FE0000AF086FC129BCDE906010593674B1398F6
:103FF0001B68CDF80C800493119B0DF1700802939F
:104000000AF076FC624ACDE90001694928460DF0C4
:1040100025FB3420CDF87C9009F082FB5E492B46CD
:104020003A468DE800030446FEF7DEFD4046FEF703
:1040300053FB60495C4809F005FD5C4900F00DBF89
:10404000002E00F0608121464F4806F0ABFF10982B
:104050002C700AF04DFCCDE906014C4BCDF810B0A8
:104060001B6813980393CDF808800AF041FC484A76
:10407000CDE90001504928460DF0F0FA34201F9494
:1040800009F04EFB0DF1700943492B463A46019465
:10409000CDF800908046FEF7A7FD4846FEF71CFBD2
:1040A0004649FFF70ABBB9F1000F00F0C480002EAB
:1040B00000F08E80002C38D05146334806F072FF55
:1040C000109885F800A00AF013FC129BCDE90801B6
:1040D0000693119BCDF810B005932C4B0E981B68DE
:1040E000CDF8088003930AF003FC294ACDE90001CA
:1040F000334928460DF0B2FA3420CDF87CA009F0FF
:104100000FFB0DF1700824492B463A468DE8000557
:104110000446FEF769FD4046FEF7DEFA29492248CB
:1041200009F090FC214900F014BF2146164806F022
:1041300039FF10982C700AF0DBFBCDE90601134B18
:10414000CDF810B01B680E980393CDF808800AF0E4
:10415000CFFB0F4ACDE900011B4928460DF07EFA3E
:1041600034201F9409F0DCFA0DF170090A492B463E
:104170003A460194CDF800908046FEF735FD48465A
:10418000FEF7AAFA11491CE74481FF3F6082FF3F16
:104190000B651100766F11009448FF3F0A6711000C
:1041A000EA6F1100996711008481FF3FD465110007
:1041B0004A7011003F681100B4701100DB681100F3
:1041C000147111008769110088711100106A1100C3
:1041D000002C6BD03146A84806F0E4FE10982E70F3
:1041E0000AF086FB129BCDE906010593119B0E9800
:1041F0000493A24B0DF170091B68CDF8088003935E
:104200000AF076FB9E4ACDE900019E4928460DF052
:1042100025FA34201F9609F083FA9B492B463A462B
:104220000196CDF800908046FEF7DEFC4846FEF78A
:1042300053FA964993E0002C00F09780002E00F08E
:10424000BF8049468C4806F0ADFE109885F8009076
:104250000AF04EFB129BCDE904010393874BCDF886
:1042600008B01B68864A8A490193CDF80080119BEB
:1042700028460DF0F3F93420CDF87C9009F050FA7F
:104280000DF1700A80492B463A46CDF80490CDF8DE
:1042900000A08046FEF7A8FC5046FEF71DFA7D49B7
:1042A0007D4809F0CFFB7D4900F0F1BE2146724800
:1042B00006F078FE10982C700AF01AFBCDE9040184
:1042C0006E4B0E981B68CDF8088003930AF010FB24
:1042D0006B4ACDE90001724928460DF0BFF9342040
:1042E0001F9409F01DFA0DF1700967492B463A46F3
:1042F0000194CDF800908046FEF776FC4846FEF724
:10430000EBF968495DE631465B4806F04BFE1098D4
:104310002E700AF0EDFACDE90401584B13981B6892
:10432000CDF8088003930AF0E3FA554ACDE900017D
:104330005D4928460DF092F934201F9609F0F0F9F6
:104340000DF1700950492B463A460196CDF8009080
:104350008046FEF749FC4846FEF7BEF953494E48F1
:1043600009F070FB4D4900F00EBF002E58D02146D9
:10437000414806F017FE10982C700AF0B9FACDE902
:1043800002013E4B3E4A1B6849490193CDF800802B
:104390005B4628460DF062F934201F9409F0C0F9FD
:1043A0000DF1700938492B463A460194CDF800903A
:1043B0008046FEF719FC4846FEF78EF93D4900E6B7
:1043C00031462D4806F0EEFD10982E700AF090FA56
:1043D000129BCDE904010293284B294A1B683649F8
:1043E0000193CDF80080119B28460DF037F9342059
:1043F0001F9609F095F90DF1700823492B463A46AE
:104400000196CDF800800446FEF7EEFB4046FEF72D
:1044100063F92A49204809F015FB204900F013BF31
:104420003146154806F0BEFD10982E700AF060FA6D
:10443000CDE90201114B124A1B682149009328461D
:1044400043460DF00BF934201F9609F069F90DF180
:1044500070090D492B463A460196CDF800908046EA
:10446000FEF7C2FB4846FEF737F916490A4809F03D
:10447000E9FA0A4900F01FBF4481FF3F6082FF3F15
:104480000B651100E87111009448FF3FAF6A1100FD
:1044900052721100516B11008481FF3FD4651100ED
:1044A000BC721100DC6B110012731100776C1100EB
:1044B00068731100156D1100BE731100B66D110007
:1044C0001E741100476E1100149B002B00F08483B2
:1044D000BAF1000F00F09481B9F1000F00F0FA80FA
:1044E000002E00F08D80002C56D01599B14806F0B2
:1044F00059FD9DF854300F982B700AF0F9F9129B72
:10450000CDE90A010893119BCDF818B00793AA4B87
:104510000E981B68CDF8108005930AF0E9F9CDE9F3
:10452000020113980AF0E4F9A44ACDE90001A44974
:1045300028460DF093F8159B34201F9309F0F0F8EE
:104540000446159B0DF170083A469E490193CDF83B
:1045500000802B46FEF748FB4046FEF7BDF89A491F
:104560009A4809F06FFA9A49984809F06BFA159A37
:1045700020461146FEF73EFC9649944809F062FA3F
:10458000002C3FF4AEA82046FEF7C6F8204609F0FE
:10459000E3F8159C00F09EBE2146864806F002FD19
:1045A0000F982C700AF0A4F9CDE90801824BCDF8E0
:1045B00018B01B680E980593CDF810800AF098F992
:1045C000CDE9020113980AF093F97C4ACDE9000184
:1045D000814928460DF042F834201F9409F0A0F8D4
:1045E0000DF1700977492B463A460194CDF80090B9
:1045F0008046FEF7F9FA4846FEF76EF8774964E21E
:10460000002C35D031466B4806F0CCFC0F982E704C
:104610000AF06EF9129BCDE908010793119B0E98E1
:104620000693654B1B68CDF8108005930AF060F97E
:10463000CDE9020113980AF05BF9604ACDE9000167
:10464000674928460DF00AF834201F9609F068F8EB
:104650000DF170085B492B463A460196CDF8008073
:104660000446FEF7C1FA4046FEF736F85D4983E29C
:104670002146504806F096FC0F982C700AF038F945
:10468000CDE906014C4B0E981B68CDF810800593C0
:104690000AF02EF9CDE9020113980AF029F9474AE8
:1046A000CDE90001504928460CF0D8FF34201F9472
:1046B00009F036F80DF1700942492B463A4601944B
:1046C000CDF800908046FEF78FFA4846FEF704F8D2
:1046D0004649FAE1002C35D04946364806F062FCDE
:1046E0000F9885F800900AF003F9129BCDE90601B6
:1046F0000593314B13981B68CDF80C800493119BE4
:104700000DF1700802930AF0F3F82C4ACDE900018C
:10471000374928460CF0A2FF3420CDF87C9008F0F1
:10472000FFFF2B463A4627498DE800030446FEF773
:104730005BFA4046FDF7D0FF2E49244809F082F984
:1047400023498AE3002E00F064812146194806F0CF
:1047500029FC0F982C700AF0CBF8CDE90601164B16
:10476000CDF810B01B6813980393CDF808800AF0B9
:10477000BFF8124ACDE900011F4928460CF06EFF30
:1047800034201F9408F0CCFF0DF170092B463A46F7
:104790000C490194CDF800908046FEF725FA484672
:1047A000FDF79AFF1549094809F04CF90849FEF749
:1047B00088BF00BF4481FF3F6082FF3F0B6511004F
:1047C0006A7411009448FF3FA46511008481FF3F83
:1047D000BA651100EE651100E87411006A661100F7
:1047E000527511000A671100C67511009967110012
:1047F000257611003F6811008F761100DB681100EB
:10480000B9F1000F00F09E80002E68D0002C37D048
:104810005146B04806F0C6FB0F9885F800A00AF094
:1048200067F8129BCDE908010693119BCDF810B0F3
:104830000593A94B0E981B68CDF8088003930AF0E6
:1048400057F8A64ACDE90001A54928460CF006FF15
:104850003420CDF87CA008F063FF0DF170082B46E2
:104860003A46A0498DE800050446FEF7BDF94046EA
:10487000FDF732FF9C499D4809F0E4F89C4968E344
:104880002146944806F08EFB0F982C700AF030F801
:10489000CDE90601904BCDF810B01B680E9803933C
:1048A000CDF808800AF024F88C4ACDE9000191493E
:1048B00028460CF0D3FE34201F9408F031FF0DF190
:1048C000700988492B463A460194CDF800908046FD
:1048D000FEF78AF94846FDF7FFFE8749F5E0002C10
:1048E0006AD031467B4806F05DFB0F982E7009F0C8
:1048F000FFFF129BCDE906010593119B0E980493CF
:10490000754B0DF170091B68CDF80880039309F011
:10491000EFFF724ACDE90001784928460CF09EFE6F
:1049200034201F9608F0FCFE6E492B463A4601964D
:10493000CDF800908046FEF757F94846FDF7CCFECB
:104940006F4992E0002C00F09580002E00F0EA8084
:104950004946604806F026FB0F9885F8009009F05C
:10496000C7FF129BCDE9040103935B4BCDF808B060
:104970001B685A4A63490193CDF80080119B284671
:104980000CF06CFE3420CDF87C9008F0C9FE0DF1DF
:10499000700A2B463A465349CDF80490CDF800A052
:1049A0008046FEF721F95046FDF796FE56494F48DE
:1049B00009F048F84E496AE32146464806F0F2FA03
:1049C0000F982C7009F094FFCDE90401424B0E982A
:1049D0001B68CDF80880039309F08AFF3F4ACDE9B0
:1049E00000014A4928460CF039FE34201F9408F093
:1049F00097FE0DF170093B492B463A460194CDF8DC
:104A000000908046FEF7F0F84846FDF765FE404905
:104A10005BE031462F4806F0C5FA0F982E7009F07A
:104A200067FFCDE904012C4B13981B68CDF8088073
:104A3000039309F05DFF294ACDE900013549284675
:104A40000CF00CFE34201F9608F06AFE0DF1700980
:104A500024492B463A460196CDF800908046FEF751
:104A6000C3F84846FDF738FE2B49204808F0EAFF16
:104A70001F4988E3002E00F084802146154806F087
:104A800091FA0F982C7009F033FFCDE90201124B17
:104A9000124A1B6821490193CDF800805B462846E5
:104AA0000CF0DCFD34201F9408F03AFE0DF1700983
:104AB0000C492B463A460194CDF800908046FEF70B
:104AC00093F84846FDF708FE1549084808F0BAFF74
:104AD000074983E34481FF3F6082FF3F0B6511007C
:104AE000EF7611009448FF3F876911008481FF3FF2
:104AF000BA65110063771100106A1100C3771100C5
:104B0000AF6A11002D781100516B110097781100D8
:104B1000DC6B1100ED781100776C11004379110006
:104B2000156D11003146A24806F03CFA0F982E7020
:104B300009F0DEFE129BCDE9040102939D4B9E4AD3
:104B40001B689E490193CDF80080119B28460CF00C
:104B500085FD34201F9608F0E3FD0DF1700898499B
:104B60002B463A460196CDF800800446FEF73CF805
:104B70004046FDF7B1FD9349934808F063FF934920
:104B800061E331468A4806F00DFA0F982E7009F05D
:104B9000AFFECDE90201874B874A1B688C49009321
:104BA000284643460CF05AFD34201F9608F0B8FD05
:104BB0000DF170092B463A4681490196CDF80090D7
:104BC0008046FEF711F84846FDF786FD81497E488C
:104BD00008F038FF7D496EE3764BBAF1000F00F024
:104BE0008181B9F1000F00F00981002E7FD0002CE7
:104BF0004DD014996E48159306F0D4F99DF85030B5
:104C00000E982B70129BCDF818B00893119B079348
:104C1000159B1B68CDF81080059309F069FECDE95E
:104C20000201139809F064FE634ACDE900016A4964
:104C300028460CF013FD149B34201F9308F070FDE0
:104C4000149B0DF170085E4901933A462B46CDF84E
:104C500000800446FDF7C8FF4046FDF73DFD5F4973
:104C6000594808F0EFFE149A20461146FEF7C2F8A4
:104C70005B49554808F0E6FE002C3EF432AD204674
:104C8000FDF74AFD204608F067FD149C22E321460B
:104C90004748149306F086F9149B2C70CDF818B091
:104CA0001B680E980593CDF8108009F021FECDE920
:104CB0000201139809F01CFE3F4ACDE90001494961
:104CC00028460CF0CBFC34201F9408F029FD0DF190
:104CD00070093B492B463A460194CDF80090804636
:104CE000FDF782FF4846FDF7F7FC3F4976E2149353
:104CF000002C30D031462E4806F054F9129B2E700D
:104D00000793119B0E980693149B1B68CDF8108097
:104D1000059309F0EDFDCDE90201139809F0E8FDD6
:104D2000254ACDE90001314928460CF097FC342092
:104D30001F9608F0F5FC0DF1700821492B463A4604
:104D40000196CDF800800446FDF74EFF4046FDF782
:104D5000C3FC274977E22146154806F023F9149B46
:104D60002C701B680E980593CDF8108009F0C0FDDB
:104D7000CDE90201139809F0BBFD0F4ACDE900010E
:104D80001C4928460CF06AFC34201F9408F0C8FC2B
:104D90000DF170090A492B463A460194CDF800906E
:104DA0008046FDF721FF4846FDF796FC124915E2C3
:104DB0004481FF3F6082FF3F0B651100997911002C
:104DC0009448FF3FB66D11008481FF3FBA65110022
:104DD000F9791100476E1100457A1100A4651100A0
:104DE000EE651100B97A11006A661100197B110095
:104DF0000A671100837B1100996711001493002C3E
:104E000042D04946B94806F0CDF8129B85F800908B
:104E10000593149B13981B68CDF80C800493119B89
:104E20000DF17008029309F063FDB14ACDE900016C
:104E3000B04928460CF012FC3420CDF87C9008F0E4
:104E40006FFCAD492B463A468DE800030446FDF75A
:104E5000CBFE4046FDF740FCA849A94808F0F2FD0A
:104E600049464A462046FDF7C5FFA649A44808F032
:104E7000E9FD002C3EF435AC2046FDF74DFC204604
:104E800008F06AFC4C4625E2002E00F055812146D0
:104E9000964806F087F8149B2C70CDF810B01B686C
:104EA00013980393CDF8088009F022FD904ACDE9CC
:104EB0000001954928460CF0D1FB34201F9408F0DE
:104EC0002FFC0DF170098C492B463A460194CDF820
:104ED00000908046FDF788FE4846FDF7FDFB8B49B4
:104EE000FEF7EFBB1493B9F1000F00F0A080002E85
:104EF0006FD0002C43D051467C4806F053F8129BEB
:104F000085F800A00693119BCDF810B00593149B73
:104F10000E981B68CDF80880039309F0E9FC744AE9
:104F2000CDE900017A4928460CF098FB3420CDF8F1
:104F30007CA008F0F5FB0DF170086F492B463A464E
:104F40008DE800050446FDF74FFE4046FDF7C4FB23
:104F500070496B4808F076FD514652462046FDF7F1
:104F600049FF6849664808F06DFD002C00F0B181EA
:104F70002046FDF7D1FB204608F0EEFBA9E12146D3
:104F80005A4806F00FF8149B2C70CDF810B01B682F
:104F90000E980393CDF8088009F0AAFC544ACDE995
:104FA00000015D4928460CF059FB34201F9408F09D
:104FB000B7FB0DF1700950492B463A460194CDF8E4
:104FC00000908046FDF710FE4846FDF785FB5349EB
:104FD00004E1002C61D03146444805F0E3FF129B08
:104FE0002E700593119B0E980493149B0DF170097C
:104FF0001B68CDF80880039309F07AFC3C4ACDE9A0
:105000000001474928460CF029FB34201F9608F080
:1050100087FB39492B463A460196CDF800908046E9
:10502000FDF7E2FD4846FDF757FB3E49ABE0002C9B
:1050300000F0AF80002E00F0E18049462B4805F0DB
:10504000B1FF129B85F800900393149BCDF808B034
:105050001B68274A34490193CDF80080119B2846EC
:105060000CF0FCFA3420CDF87C9008F059FB0DF1DF
:10507000700A21492B463A46CDF80490CDF800A09D
:105080008046FDF7B1FD5046FDF726FB27491C4839
:1050900008F0D8FC4A464946A5E02146134805F0E9
:1050A00081FF149B2C701B680E980393CDF8088029
:1050B00009F01EFC0E4ACDE900011D4928460CF0FE
:1050C000CDFA34201F9408F02BFB0DF170090A492A
:1050D0002B463A460194CDF800908046FDF784FDBA
:1050E0004846FDF7F9FA134978E000BF4481FF3FD5
:1050F0000B651100D97B11009448FF3F3F681100F8
:105100008481FF3FEE651100397C1100DB681100DE
:105110008F7C110087691100F97C1100106A110061
:105120004F7D1100AF6A1100AF7D1100516B11006E
:105130000F7E1100DC6B110031466E4805F032FF26
:10514000149B2E701B6813980393CDF8088009F008
:10515000CFFB694ACDE90001684928460CF07EFA88
:1051600034201F9608F0DCFA0DF1700964492B46D3
:105170003A460196CDF800908046FDF735FD484649
:10518000FDF7AAFA5F49604808F05CFC32463146F8
:1051900029E0002E6ED02146564805F003FF149BEF
:1051A0002C701B68544A59490193CDF800805B4626
:1051B00028460CF053FA34201F9408F0B1FA0DF190
:1051C00070094F492B463A460194CDF8009080462D
:1051D000FDF70AFD4846FDF77FFA4D494A4808F0B9
:1051E00031FC224621464046FDF704FE4949464827
:1051F00008F028FCB8F1000F64D16BE031463D485F
:1052000005F0D0FE129B2E700293149B3A4A1B6845
:1052100041490193CDF80080119B28460CF01EFAFD
:1052200034201F9608F07CFA0DF1700834492B46A3
:105230003A460196CDF800800446FDF7D5FC40467D
:10524000FDF74AFA3549304808F0FCFB3146324652
:105250002046FDF7CFFD2F492B4808F0F3FB002C2B
:105260003EF43FAA2046FDF757FA204608F074FAAC
:1052700034462FE031461F4805F094FE149B1E4A29
:105280001B6827492E702846009343460CF0E6F928
:1052900034201F9608F044FA0DF1700918492B4686
:1052A0003A460196CDF800908046FDF79DFC4846B1
:1052B000FDF712FA1B49144808F0C4FB3246314688
:1052C000FEF704BA4046FDF727FA404608F044FAD4
:1052D00000E05446144A00231360144A9A461360AF
:1052E000159314939946FDF788BF0DF5697DBDE8C8
:1052F000F08F00BF4481FF3F0B6511005B7E110002
:105300009448FF3F776C11008481FF3FA77E110016
:10531000156D1100EE651100F37E1100B66D1100E0
:10532000497F1100476E11004482FF3F6082FF3FBA
:1053300010B50446FDF79AF9204608F00DFA20460C
:1053400010BDA0F13400F3E7A0F13800F0E7000051
:1053500030B5534987B05348FDF716F8524A5349C0
:10536000504808F0B8F9524B002203F5C0701946B6
:1053700043F8042C43F8083C01F8182B19615A61D2
:105380001A76303383424FF00005F0D1464A49493E
:10539000284608F0A0F942494748FCF7F5FF424A81
:1053A0004249454808F097F93D494448FCF7ECFF6D
:1053B0003D4A3E49414808F08EF939494048FCF7DA
:1053C000E3FF394A39493E4808F085F93D4808F07D
:1053D00085FB354A3C493B4808F07DF907213B48AD
:1053E000FDF721F810213A48FDF71DF84FF0FF3482
:1053F0000E213848FDF717F80094042306220521F2
:10540000354807F0F7F921463448FDF70CF80094C9
:10541000202302220321324802F048FB224A31496C
:105420002D4808F058F900940423062205212E483F
:1054300000F058FA1C4A2D492B4808F04CF92C4B27
:10544000082404930E220F238DE80C0003940423F8
:10545000029506220521274803F020F8124A264922
:10546000244808F038F94FF4E133009321462B46E5
:10547000224C0922224807F015F90B4A21492048FD
:1054800008F029F9204607F025FB20461E4B064A66
:105490001E492360656307B0BDE8304008F01BB9C2
:1054A000ED6411005047FF3FA040FF3FE5E11000D1
:1054B000D845FF3FED2210002C81FF3F6847FF3F9A
:1054C0004882FF3F1482FF3FF7DA10008448FF3F15
:1054D0000882FF3F4481FF3F3445FF3F6045FF3F67
:1054E0007445FF3F312310000081FF3F0D23100062
:1054F00040420F009048FF3F11551000D081FF3F00
:105500005081FF3F6D261000A8971100F92510006B
:1055100010B50446074B703040F8703C7C3340F8BF
:105520006C3C02F0A3FB04F1340006F0B7FF204608
:1055300010BD00BFC48C1100A0F10400E8E700BF5B
:1055400010B50446FFF7E4FF204608F005F92046B1
:1055500010BDA0F10400F3E708B5072008F0B6F984
:10556000BDE808400021014805F01CBD7082FF3FE6
:1055700008B50448012105F015FDBDE808400720E5
:1055800008F0A4B97082FF3F10B50446082100223C
:1055900000F0D2F92046BDE81040014900F0E4B91E
:1055A00040420F000C4810B507210024046004712C
:1055B000846002F0D1FF0948102104600471846006
:1055C00002F0CAFF06480E21046004718460BDE841
:1055D000104002F0C1BF00BF7082FF3F7C82FF3FDE
:1055E0006482FF3F38B504460D46FFF7CDFF2046E5
:1055F000FFF7BEFF2046FFF7AFFF2946204600F029
:10560000C9F92046FFF7B4FF042008F05FF92046EF
:10561000BDE83840FFF7B8BFF8B504460D461E4652
:105620001746FFF7B1FF2046FFF7A2FF2046FFF71E
:1056300093FF45F02001204600F0ACF93546AB1B46
:105640009F4205DD15F8011B204600F0A3F9F6E79F
:105650002046FFF78DFF042008F038F92046BDE80A
:10566000F840FFF791BF38B504460D46FFF78CFFB1
:105670002046FFF77DFF2046FFF76EFF29462046B4
:1056800000F088F9FF21204600F084F90546204605
:10569000FFF76EFF2046FFF777FFE8B238BD70B521
:1056A00004460E461546FFF76FFF2046FFF760FFE2
:1056B0002046FFF751FF46F02001204600F06AF92E
:1056C0002946204600F066F92046FFF751FF0420E6
:1056D00008F0FCF82046FFF757FF31462046FFF759
:1056E000C2FFC0B2854214BF6FF00100002070BD40
:1056F00037B505460121374805F054FC2846FFF729
:1057000037FF2846FFF740FFAB238DF80430AC236A
:105710008DF80330AD238DF802300122AE238DF8D1
:1057200001301146AF2328468DF80030FFF7B7FF50
:1057300000284DD1012202212846FFF7B0FF0028A2
:1057400046D1032211462846FFF7A9FF00283FD182
:105750002F2204212846FFF7A2FFC8BB2C220521D7
:105760002846FFF79CFF98BB062211462846FFF704
:1057700096FF68BB052211212846FFF790FF38BB32
:1057800001467B222846FFF78AFF0446F8B97022BB
:1057900007212846FFF783FF6B4605220A2128468A
:1057A000FFF73AFF6B46052210212846FFF734FF2A
:1057B000E2212846FFF716FFE1212846FFF712FFF6
:1057C0000448012105F0EEFB022008F0A3F8204672
:1057D00003B030BD7C82FF3FF8B5044617460D4646
:1057E000FFF7D2FE2046FFF7C3FE2046FFF7B4FEC8
:1057F0006121204600F0CEF8013D7E1E3D44AE42C0
:1058000006D0FF21204600F0C5F806F8010FF6E7A4
:105810002046FFF7ADFE042008F058F82046FFF7B9
:10582000B3FE0448012105F0BDFBBDE8F8400A20A5
:1058300008F070B87C82FF3FF8B5044617460D4665
:10584000FFF7A2FE2046FFF793FE2046FFF784FEF7
:10585000A021204600F09EF8013D7E1E3D44AE4250
:1058600005D016F8011F204600F094F8F7E720460F
:10587000FFF77EFE0121074805F094FB0C2008F09D
:1058800025F80448002105F08DFB2046BDE8F840CE
:10589000FFF77ABE7C82FF3F704710B5044607F0E1
:1058A0005BFF204610BD000070B5044603680C4E37
:1058B0009B68984733689C420BD0251D0023626A81
:1058C000216A284606F0A4FCA16A284606F0FAFCE4
:1058D000346023682046BDE87040DB68184700BF8D
:1058E000BC82FF3F2DE9F341054604460E461746AC
:1058F00098460F4B1C2245F8043B002128460AF02D
:1059000012FB08232362002363620A4B3A46A36218
:105910009DF92030314600932846434606F070FC3E
:105920002046FFF7C1FF204602B0BDE8F08100BF6E
:10593000E47F110040420F0070B504460E46154644
:1059400003689B689847074B2046266265620022E1
:105950001A60FFF7A9FF23682046BDE87040DB68A6
:10596000184700BFBC82FF3F70B504460D46036870
:105970009B689847064B2046A56200221A60FFF7F5
:1059800093FF23682046BDE87040DB68184700BFDE
:10599000BC82FF3F38B504460D4603689B689847B4
:1059A0002046FFF781FF2946201D06F09DFC054695
:1059B00023682046DB689847284638BDF7B504467B
:1059C0000D4616461F4603689B6898472046FFF71A
:1059D0006BFF089B2946009332463B46201D06F08C
:1059E00090FC054623682046DB689847284603B0AC
:1059F000F0BD000070B5044654F8043B05467BB981
:105A00000C4E4FF0FF31306804F0DEF82B6823B9FC
:105A100014B1204608F062F82C60306804F0F2F807
:105A20002B68A34204D05B220349044802F0B8FE6D
:105A3000286870BD808EFF3F8B7F1100C77F1100EB
:105A400008B50448FFF7D6FFBDE808404FF0FF3126
:105A500008F04BB88882FF3F08B50348FFF7CAFF3C
:105A6000BDE8084008F044B88882FF3F0848094A6A
:105A700008B5121A00210AF056FA02F0DDFF0AF00A
:105A800089F905F061FC02F0CFFF07F026FE00BFA8
:105A9000E042FF3F1C9FFF3F022801DD07F0A2BD4F
:105AA0000120704708B5012007F017FE08B5FFF781
:105AB000F9FF0000A1F10903DBB2172B05D8534A07
:105AC00022FA03F3DA0700F18E8014380B2800F273
:105AD0008A80DFE800F006141E232A2A2848575738
:105AE00066772F2900F085802A2900F0828041F016
:105AF0002001613919298CBF01201520704741F020
:105B00002003613B192B6CD93A2914BF01201620C0
:105B100070472F2914BF0120172070472F2914BF69
:105B200001201820704740295DD02F2961D03F29DE
:105B30005BD040295BD041F02003613B192B62D937
:105B4000A1F12103DBB21C2B5BD8314A22FA03F30B
:105B5000DB0758D401F0FB035B2B54D05D2914BF45
:105B60000120192070472B4ACB08D25C01F00700B6
:105B7000012383401A423CD123293ED03F2908BF4C
:105B80001C201CE0234ACB08D25C01F00700012353
:105B900083401A422FD123292FD03F2908BF1D202F
:105BA0000DE01C4ACB08D25C01F0070001238340C2
:105BB0001A4224D1232920D03F2908BF1F2018BF13
:105BC00001207047134ACB08D25C012001F0070383
:105BD00000FA03F31A4212D1232910D03F2914D11D
:105BE0000DE015207047012070471C2070471A20D7
:105BF00070471B2070471D2070471E2070471F20D4
:105C000070477E29A6D11920704770471B0080007D
:105C1000F9BFFF17FC801100037813F0030317D0BE
:105C2000838AA3F16402632A14D9CC2B12D0B3F572
:105C3000987F0FD00388C3F3870303F041034BB968
:105C4000C368826802EA0300431C58425841704707
:105C5000184670470020704708B5038A028823B1B0
:105C6000438A13B1D30607D50CE0C2F3870202F0D2
:105C7000020202F0FF033AB1FFF7CEFFB0FA80F064
:105C8000400908BD002008BD184608BD00000000FE
:105C90002DE9F04F9346C27D91B012F07F02044689
:105CA00089460C9341F0628503680C99C3F38623FF
:105CB00029BB042B01F05A8504D8013B012B16D8CF
:105CC00001F054BD122B01F051853D2B0FD1D9F8B5
:105CD0001C30002B01F04C859847002801F04685C8
:105CE000E37D072262F30603E37501F03FBDE37D28
:105CF0000B2262F30603E375012001F03ABD2B2B62
:105D00001D4603D0302B08D0079201E0CDF81CB01F
:105D10000022102B019204D116E0CDF804B00792B6
:105D2000102B07D3153B0A2B04D80023CDF818B04D
:105D3000039302E0002303930693E378DA46DB093A
:105D40000D930023029309E0CDF80CB0019BF3E71B
:105D5000B8F10D0F40F0A2800AF1010A0C9B5B44E0
:105D60009A45049301F02284382D9AF8008012D8C5
:105D700063680133B3F5005F63600CD9E37D0C22E7
:105D800001F036BBB8F10D0F01F0CD83B8F10A0F69
:105D900040F0FA8337256B1E3D2B01F2558301A29B
:105DA00052F823F0515D1000AD5E1000FB5E100054
:105DB0002F5F1000755F1000815F10008D5F100075
:105DC000995F1000A55F1000BB5F1000C75F100057
:105DD000DD5F1000E95F1000036010004D601000EF
:105DE00073601000316110003D61100017621000F7
:105DF0003D6310005D6310005D6310005D63100083
:105E00005D63100077631000776310007763100004
:105E100077631000776310007763100077631000DA
:105E2000616410007B6410008764100093641000AC
:105E30009F641000F1641000056510002D651000CE
:105E4000416510007F651000855D1000056610003B
:105E50002D681000356D10003F6D10004D6810006A
:105E600039691000EB6C1000DD6C10006F711000D0
:105E7000C57110003D7210005B721000D56D1000EE
:105E8000A36E1000CF72100051731000D573100074
:105E900027701000F170100007711000B8F10A0FA0
:105EA0003FF45AAFE37D0D2201F0A2BAB8F10D0F15
:105EB0003FF452AFB8F10A0F3FF44EAF23884FF0D2
:105EC000FF326FF389032380B8F1480F4FF0FF339F
:105ED000C4E902230BD1E37D5F0604D0B84BB94A75
:105EE00040F2DF2140E0D9F80030032583E1237838
:105EF00012256FF3010323704DE7B8F1540F06D15B
:105F00002378012262F301032370062524E7B8F108
:105F1000450F40F0AE82237802226FF30103237015
:105F2000E378A27562F30603E370132514E7238870
:105F30004FF0FF326FF389032380B8F10D0F4FF05C
:105F4000FF33C4E9022308D0B8F1480F04D0B8F1F8
:105F50000A0F40F08E8200E00525E37D5E0606D044
:105F600040F20D31964B974A974809F013FCD9F847
:105F7000003040E1B8F1540F01F06C8201F036BA04
:105F8000B8F1540F01F0698201F030BAB8F1500F46
:105F900001F0668201F02ABAB8F12F0F01F0638296
:105FA00001F024BAA8F130085FFA88F3092B00F257
:105FB000E282A4F810800A25CEE6B8F12E0F40F058
:105FC000A58201F053BAA8F130085FFA88F3092BD3
:105FD00000F2D182A4F812800C25BDE6B8F1200FA2
:105FE00040F0B68201F045BAA8F13003DAB2092ACE
:105FF00004D9B8F1200F3FF4AFAE23E0A3820E2501
:10600000AAE6A8F13003092B0DD9B8F10D0F08D07D
:10601000B8F1200F01F03082B8F10A0F12D12A2511
:106020009AE6112598E6A38A03EB830308EB43085D
:10603000A8F130081FFA88F8B8F57A7FA4F8148020
:10604000FFF48AAEE37D0F2201F0D2B9B8F10D0F53
:1060500001F01582B8F10A0F01F01482039B10259C
:10606000002B08BF53460393E3786FF30603E370F6
:1060700072E6B8F10D0F2BD1E37D590604D0504BD9
:10608000504A40F2AD316FE7039B002B01F0FD81D8
:10609000D9F80830002B01F0FB812268112161F34F
:1060A00090222260039A0399C2EB0A022046984785
:1060B00020B1E37D082262F30603E375E37D2568E2
:1060C00013F07F03C5F3862501F0E68101F0B7B92F
:1060D000B8F10A0F7FF440AEE37D5A0604D0384B86
:1060E000384A40F2B3313FE7039B002B01F0E681D1
:1060F000D9F80830002B01F0E48122682A2161F3ED
:1061000090222260039A0399C2EB0A022046984724
:1061100020B1E37D082262F30603E375E37D256881
:1061200013F07F03C5F3862501F0CF8101F087B915
:10613000B8F10A0F01F0CC8101F058B9B8F10D0F98
:106140003FF40AAEB8F10A0F3FF406AE23884FF0D1
:10615000FF326FF3890323804FF0FF33C4E902233A
:1061600048F02003613B192B00F2DD800023E27828
:10617000A375012363F30602A8F14108E270B8F1A8
:10618000140F00F2D080DFE808F00B0D0F2BCECEFD
:106190002A11CECECE1315171921CE23252729007B
:1061A00013231CE010231AE0052318E0022316E055
:1061B000092314E00A2312E0192310E006230EE05D
:1061C0001C821100568B110040821100032306E04F
:1061D000142304E01A2302E0072300E00F23A37531
:1061E000E37D5B0604D0B14BB14A4FF47971BBE655
:1061F000D9F800301325002B3FF4AEAD22682046BD
:1062000065F3902222609847002801F01181E37D18
:10621000012201F059B8B8F1000F00F08480A17D8F
:10622000A44BB8F1200F53F8210005D1E37803F017
:106230007F03C35C002B7AD0E27802F07F03C05C5E
:10624000404575D048F020006138192860D81B02FD
:1062500043EA014343EA0808974B984545D020DCC0
:10626000964B98454BD00ADC954B984543D0033369
:10627000984536D0143B984555D11C2346E0914BA8
:10628000984530D005DCA3F5847398454BD116238F
:106290003CE08D4B984534D08C4B984543D1172327
:1062A00034E08B4B98452ED00ADC8A4B98451ED0A3
:1062B000894B984521D0894B984534D1152325E049
:1062C000874B984521D004DCF63B98452BD11B2306
:1062D0001CE0844B98450CD0834B984523D10E236A
:1062E00014E0042312E0082310E00B230EE01E2329
:1062F0000CE011230AE00C2308E00D2306E01D2327
:1063000004E01F2302E0122300E02023A3750FE026
:10631000B8F12D0F07D102F07F02012A03D10A291B
:1063200001D11823F2E7E37D102201F061B81425B2
:10633000E3785A1C62F30603E3700DE5B8F1200F11
:106340003FF40AAD069B4146002B08BF5346069317
:10635000A37D052B14BF2846182077E0A8F10A0377
:10636000DBB2162B70D8012202FA03F35F4A1A40FF
:10637000002A69D070E0B8F10D0F31D0B8F1200FCC
:1063800003D0B8F10A0F5FD12AE0E37D5F0604D0A5
:10639000464B474A40F25541E6E5069B002B01F08B
:1063A0009A80D9F80430002B01F098802268069971
:1063B00068F390222260069A2046C2EB0A029847B0
:1063C00020B1E37D022262F30603E375E37D2568D5
:1063D00013F07F03C5F3862501F0848001F02FB808
:1063E0000023238209236382E37DB8F10D0F0CBFE4
:1063F00029252A255E0604D02C4B2D4A40F25E4109
:10640000B2E5069B002B3FF4A7ACD9F80430002B73
:1064100001F06B802268069965F390222260069A4B
:106420002046C2EB0A02984720B1E37D022262F3C4
:106430000603E375E37D256813F07F03C5F3862526
:1064400001F0568000F0FBBF41462846FFF732FBC3
:10645000012805467FF480ACE37D112200F0C8BF1F
:10646000B8F1200F3FF478ACB8F1480F01D12125E5
:1064700072E4E37D1C2200F0BBBFB8F1540F01F0C1
:106480003A8000F0B3BFB8F1540F01F0378000F04C
:10649000ADBFB8F1500F01F0348000F0A7BFB8F1E4
:1064A0002F0F01F0318000F0A1BF00BF1C8211004E
:1064B000568B1100F88B11004F010A0052020400A4
:1064C00052010300500205004901090045010A007C
:1064D00042020F0041030A0050040C0041020A006E
:1064E00049030F004202140045011A000900400050
:1064F000A8F13103082B3ED8A8F13008A4F8108089
:10650000262529E4B8F12E0F01F00180A8F130030F
:10651000092B30D8238A03EB830308EB4308A8F147
:1065200030081FFA88F8A4F8108020E0A8F130089D
:106530005FFA88F3092B1ED8A4F8128028250BE4F3
:10654000B8F10D0F00F0E687B8F10A0F00F0E5870B
:10655000A8F13003092B0ED8638A03EB830308EB01
:106560004308A8F130081FFA88F8A4F81280B8F59B
:106570007A7FFFF4F1ABE37D0E2200F039BFB8F172
:106580000A0F00F0CD87ADE39F4B13F808201AB92E
:10659000E37D182200F02CBF079B002B08BF534659
:1065A0000793E378702A6FF30603E370A37814D09F
:1065B00008D8632A1FD1012262F34703A3702B2559
:1065C000FFF7CABB742A0FD0752A14D1082262F3D0
:1065D0004703A3702B25FFF7BFBB052262F34703D8
:1065E000A3702B25FFF7B8BB072262F34703A37004
:1065F0002B25FFF7B1BBA3782B256FF34703A370BF
:10660000FFF7AABB56468148814F4FF00C0C4FF064
:106610000A0E049B9E4200F0AD8031467A4B11F881
:10662000018B13F80830002B00F0A480A2785208E8
:106630000C2A00F29780DFE802F09B07111E334816
:1066400056697D9191919100E2786F2B02F10106DC
:1066500066F30602E27008BF022208E0E2786E2BC1
:1066600002F1010666F30602E27008BF032218BFBA
:106670000022A3785BE0E2786E2B02F1010666F35C
:106680000602E270A27803D0742B05D1062300E045
:10669000042363F3470201E06FF34702A27067E04F
:1066A000E678721C02F07F0262F306060A2AE670A0
:1066B00002D8BE5C9E4203D0A3786FF347034BE041
:1066C000092A55D1A378092231E0E678721C02F03C
:1066D0007F0262F30606102AE670EDD8865C9E42C1
:1066E000EAD10F2AEDE7E678721C02F07F0262F32E
:1066F00006060E2AE670DFD8464EB65C9E42DBD117
:106700000D2A35D1A3786EF3470325E0E678721C95
:1067100002F07F0262F30606112AE670CCD83E4EE4
:10672000B65C9E42C8D1102A22D1A3780B2262F314
:10673000470311E0E678721C02F07F0262F306065E
:10674000072AE670B8D8354EB65C9E42B4D1062A08
:106750000ED1A3786CF34703A37009E0B8F1200FC2
:10676000AAD105E02E4B2F4A40F28151FFF7FCBB26
:106770000E464EE76368CAEB06071F44B7F5005F95
:10678000676002D9E37D0C2238E0049B9E4203D16E
:1067900006F1FF3AFFF7E0BAB8F13A0FE37D2CD1EA
:1067A0005D0605D0204B1F4A40F28F51FFF7DCBB3E
:1067B000079B002B00F0BA86D9F80C302C25002B53
:1067C00000F0B8862268079965F390222260079A44
:1067D0002046B21A984720B1E37D032262F30603F4
:1067E000E375E37D256813F07F03C5F3862500F08C
:1067F000A586CBEB060A00F024BE182262F306033E
:10680000E375B24600F0A4BF1C811100AF831100F4
:10681000B58311003E601100C0831100D2831100C6
:1068200050821100568B11001C821100B8F1200F0C
:106830003FF492AAB8F1090F3FF48EAAB8F10D0FF8
:1068400000F08086B8F10A0F00F07F86019B48F0C7
:106850002002002B08BF53460193E3786FF3060331
:10686000E370A3785B08093B052B5ED8DFE813F0E3
:1068700040001D00110006005D00700623883025D1
:1068800043F080032380A3786FF34703A370FFF7DF
:1068900063BA632AA37806BF0D2262F347036FF33E
:1068A0004703A3703025FFF757BAA8F130085FFA05
:1068B00088F3092B02D9E37D192207E02388C3F36B
:1068C0008701CAB2090607D5E37D1A2262F30603DF
:1068D000E375302500F03CBF62F07F0262F389036C
:1068E00042462380D317C4E902233025FFF734BA88
:1068F0006B2AA37806D10F2262F34703A3703025D9
:10690000FFF72ABA632A06D1102262F34703A37065
:106910003025FFF721BA752A0CBF1122122262F32B
:106920004703A3703025FFF717BAA37830256FF31C
:106930004703A370FFF710BA5746A6787608049B62
:106940009F4200F0AF8197F80080B8F10D0F31D170
:10695000A37866F34703A370E37D5B0605D0A84BDD
:10696000A84A40F2EF51FFF7FFBA019B002B00F05D
:106970009581D9F81030002B00F0928122683221E5
:1069800061F390222260019A0199BA1A2046984731
:1069900020B1E37D042262F30603E375E37D2568FD
:1069A00013F07F03C5F3862500F07B81CBEB070A4C
:1069B00000F047BDB8F10A0F50D16368CAEB070079
:1069C0001844B0F5005F606008D9E37D0C2262F3E3
:1069D0000603E375BA46322500F0BABEA37866F323
:1069E0004703A370E37D5E0605D0854B854A40F2E0
:1069F000F751FFF7B9BA019B1BB9BA463225FFF729
:106A0000CAB9D9F81030322573B9BA4609E0019BEA
:106A1000002B00F08C81D9F81030002B40F0BF81A2
:106A20002A250193FFF7B7B92268019965F39022EF
:106A30002260019A2046BA1A984720B1E37D0422C9
:106A400062F30603E375E37D256813F07F03C5F366
:106A50008625DAD0CBEB070000F08BBE0D9B5BB92F
:106A6000B8F1090F08D0B8F11F0F02D8E37D182242
:106A700026E1B8F17F0FF9D048F02003162E00F27E
:106A80000281DFE816F0170000010001000100019B
:106A900000010001000100013B0041003B0000013A
:106AA000770088009400A500CB00DC00E000E50042
:106AB000E500E500049B0D21DB1BB3F5005F28BF5B
:106AC0004FF400531A463846089309F0E9F9804616
:106AD000089B0A211A46384609F0E2F9B8F1000F7E
:106AE00004D040B1804528BF804604E0049B0028C4
:106AF00018BF0346984608F1FF37CDE0424B414AA4
:106B000040F21E61FFF730BAB8F1200F00F0C480E8
:106B1000A8F130085FFA88F3092B0AD9E37D19221E
:106B200062F30603E375A3780A2262F34703A370B6
:106B3000C9E0D4E90223CDE90823089A0A23A2FB7D
:106B4000032309994FF00A0E0EFB013312EB0800E4
:106B500043EBE871CDE90E0127A3D3E90023DDE97A
:106B600008018B4208BF8242D8D3DDE90E23C4E975
:106B7000022391E0E1784A1C02F07F0262F30601F1
:106B8000072AE1707FD82149895C99427BD1062A86
:106B900008BF132680E06B2B77D0632B77D0752B43
:106BA00077D01B4AD25C002A75D1202B4DE0E178CA
:106BB0004A1C02F07F0262F306010A2AE1706AD8D9
:106BC0001449895C994266D1092A08BF142663E0FA
:106BD000E1784A1C02F07F0262F30601052AE170A7
:106BE00059D80D49895C994255D1042A08BF152608
:106BF00052E000BFAFF3008098999999999999193B
:106C00001C821100568B11006C821100DA83110076
:106C10001C811100E2831100ED831100E1784A1C10
:106C200002F07F0262F30601072AE17033D8AB4914
:106C3000895C99422FD1062A08BF16262CE0B8F1AC
:106C40002C0F29D114E0B8F1200F18BF002623E043
:106C5000B8F12C0F12D1142E238802D143F008036F
:106C600005E0152E0CBF43F0100343F020032380F2
:106C7000E3780E266FF30603E3700DE0B8F1200F02
:106C800018BF122608E0002606E00F2604E01026B2
:106C900002E0112600E01226013750E6322501E01D
:106CA00032250193A378CAEB070066F34703A3706C
:106CB00063681844B0F5005F606007D9E37D0C227B
:106CC00062F30603E375BA4600F042BD049BBB4283
:106CD00040F0418403F1FF3AFFF73EB8B8F10A0FE4
:106CE00000F03C84E37D172282E3B8F1200F02D14B
:106CF0002F25FFF750B8B8F1090FF9D0A3785B083A
:106D0000133B032B13D8DFE803F00A02060E238897
:106D100043F008030AE0238843F0100306E02388C9
:106D200043F0040302E0238843F0200323802A2554
:106D3000FFF731B8B8F10A0F00F0138456E3B8F149
:106D4000200F00F01184B8F1090F00F01084A3782F
:106D50005B08133B032B13D8DFE803F00E02060A8F
:106D6000238843F008030AE0238843F0100306E079
:106D7000238843F0200302E0238843F004032380A8
:106D8000019B002B08BF53460193E37D5D063FF452
:106D90003EAE534B534A40F2EE61FFF7E5B822682E
:106DA0002A2161F390222260019A0199C2EB0A0222
:106DB0002046984720B1E37D042262F30603E37581
:106DC000E37D256813F07F03C5F386253FF429AEE4
:106DD00000F0C9BCB8F10A0F40F008832288C2F362
:106DE0008702D3B2D90622D5E37D5A0605D03C4BA3
:106DF0003C4A40F2FA61FFF7B7B8D9F824303E2593
:106E0000002B3EF4C8AF2268204665F39022226032
:106E1000984718B1E37D68F30603E375E37D2568C1
:106E20005B06C5F386253EF4B6AF00F09CBCDF07D9
:106E300004D5160602D5E37D1A22D9E203F0280311
:106E4000282B04D0A37D591F4B424B4100E0012366
:106E5000E27D63F3C712E275D9F81430CBB1204656
:106E60009847012811D002280BD090B1E37D05226C
:106E700062F30603E3752368382262F3902300F07F
:106E800071BCE37D43F08003E375238843F4807392
:106E90002380E37D382513F07F0F3EF47CAF00F0B4
:106EA0005EBCB8F10A0F40F0A18225880023C5F32B
:106EB000870515F00106636016D1D4E9022312F1AB
:106EC000FF3243F1FF334FF0FF3199426FF0020080
:106ED00008BF90422CBF0123002306E0D28311009B
:106EE0001C821100568B11000123E17D0A0637D563
:106EF000A27D052A05D12046FEF7AEFE28B9012362
:106F000009E06F06F7D45BBBF5E7237813F0030FB6
:106F10000CBF12230423490605D0A44BA44A40F217
:106F20003D71FFF721B8D9F81C20CBEB0A0A92B1CA
:106F30002168204663F390212160904720B1E37DD2
:106F4000072262F30603E375E27D23685206C3F36A
:106F5000862340F07682226863F39022226070E2FA
:106F60006F0613D52046FEF777FE30B1237813F075
:106F7000030F0CBF1225042500E001254E0641D069
:106F80008A4B8B4A40F24371FEF7EEBF002E40F071
:106F9000F182D4E9022352EA030013D12046FEF71E
:106FA0005BFE30B1237813F0030F0CBF12250425CC
:106FB00000E00125490625D07C4B7D4A40F24B710B
:106FC000FEF7D2BF013308BFB2F1FF3F40F0D582D8
:106FD0002046FEF721FE002840F0D2822046FEF730
:106FE0003BFE30B1237813F0030F0CBF12250425AC
:106FF00000E001254A0605D06C4B6D4A40F2537102
:10700000FEF7B2BFD9F81C30002B3EF4A5AE2268C3
:10701000204665F3902222609847002800F00882FD
:10702000E37D072250E1049BD4E90201CAEB03028D
:107030001646D717B94208BF9042CDE9086701D27A
:10704000CDE9080110F1FF3641F1FF374FF0FF3372
:107050006FF00202BB4208BFB24205D2554B544A00
:1070600040F26471FEF780BF029EDDE90823002E26
:1070700008BF5646821A61EB030310461946089B67
:1070800002965A1E50EA0103C4E9020192447EF4BA
:1070900063AEE37D5B0605D0444B454A40F27B710D
:1070A000FEF762BF029B13B93E25FEF774BED9F806
:1070B00018301BB93E250293FEF76DBE22683E21B3
:1070C00061F390222260029A0299C2EB0A02013215
:1070D0002046984720B1E37D062262F30603E3755C
:1070E000E37D256813F07F03C5F38625E3D03AE3FB
:1070F000029B002B08BF534602930C9B581E0BEBC0
:10710000000AFEF729BE2046FEF7A6FD30B123781F
:1071100013F0030F0CBF1225042500E00125E37DC9
:107120005F0605D0214B224A40F28B71FEF71CBF4F
:10713000D9F81C3093B12268204665F39022226072
:10714000984720B1E37D072262F30603E375E37DF0
:1071500025685E06C5F3862540F07181E37D19063A
:107160007EF5FAAD236865F39023236067E16368D9
:10717000012B05D0104B0E4A40F29471FEF7F4BE7D
:1071800023885A0705D40D4B094A40F29571FEF742
:10719000EBBE0B4B13F80820FF2A2DD052B2D317A9
:1071A000C4E902233425FEF7D7BD00BF1C821100BD
:1071B000568B110087821100CB821100DE821100F4
:1071C000FC7F110023885B0705D4B54BB54A40F21C
:1071D000A671FEF7C9BEB8F10D0F00F0D481B24B15
:1071E00013F80820FF2A0AD1B8F13B0F00F0CE8136
:1071F000B8F1200F00F0CD81E37D1B22F8E0D4E947
:1072000002010B0143EA10730B93030152B20A937C
:10721000DDE90A67D317B6185F413B466FF0704748
:1072200032468F426FF0010608BF864202D2E37DEC
:107230001922DDE0C4E90223FEF78EBD23885F0733
:1072400005D4974B974A40F2C971FEF78DBEB8F14D
:107250000D0F08BF3625FEF77FBD2188C1F38700DB
:10726000C60705D48E4B8F4A40F2D471FEF77CBE20
:10727000B8F10A0F40F0BA8000236360D4E902231A
:10728000134301BF0B4640F0100060F389032380D5
:10729000E37D0CBF2A2539255A0605D0834B814A48
:1072A00040F2DF71FEF760BED9F82030002B3EF4CB
:1072B00053AD2268204665F390222260984700284B
:1072C00000F0B680E37D092262F30603AFE0049B81
:1072D000D4E90267CAEB03021046D1178F4208BFF8
:1072E0009642CDE9040101D2CDE9046721884B071C
:1072F00005D46B4B6B4A4FF4FD61FEF735BE16F1BA
:10730000FF3047F1FF314FF0FF336FF002028B4245
:1073100008BF824205D2664B624A40F2EA71FEF72C
:1073200023BE0299DDE90423002908BF5146B21AA1
:1073300067EB0303104602911946049BC4E902015E
:107340005A1E50EA0103924408BF3A25FEF704BDD5
:1073500023885E0705D4524B524A40F2FB71FEF778
:1073600003BED4E90223134305D0524B4D4A40F2E9
:10737000FC71FEF7F9BDB8F10D0FE37D37D15D0665
:1073800005D04A4B474A40F2FF71FEF7EDBD029B24
:10739000002B00F00181D9F81830002B00F0FF809D
:1073A00022683B2161F390222260029A0299C2EB8B
:1073B0000A022046984720B1E37D062262F30603C5
:1073C000E375E37D256813F07F03C5F3862500F0A0
:1073D000EA8034E02388590705D4314B314A40F61E
:1073E0000301FEF7C1BDB8F10A0F05D0E37D1E22EF
:1073F00062F30603E375ABE100236360E37D5A06A5
:1074000005D02A4B274A40F60701FEF7ADBDD9F853
:1074100024303325002B3EF49FAC2268204665F3D0
:1074200090222260984718B1E37D68F30603E37564
:10743000E37D25685B06C5F386253EF48DACCBEB7A
:107440000A0A0AF1010094E11B4B164A40F60B01AF
:10745000FEF78ABD0625FEF77FBC0725FEF77CBC3C
:107460000825FEF779BC0925FEF776BC0B25FEF74B
:1074700073BC0D25FEF770BC0F25FEF76DBC112502
:10748000FEF76ABC2A25FEF767BC1125FEF764BC2F
:1074900011250393FEF760BC0393FEF75DBC00BFAC
:1074A000DE821100568B1100FC7F11001C8211003E
:1074B00087821100F8821100148311002A25FEF73B
:1074C0004BBC2A250393FEF747BC0393FEF744BC4D
:1074D0002A25FEF741BC4546FEF73EBC45460693CD
:1074E000FEF73ABC0693FEF737BC0693FEF734BCB2
:1074F0000693FEF731BC2225FEF72EBC2325FEF7AE
:107500002BBC2425FEF728BC2525FEF725BC272506
:10751000FEF722BC2925FEF71FBC2A25FEF71CBC5E
:107520002A25FEF719BC3725FEF716BCB2462C25D6
:10753000FEF712BCB2460793FEF70EBCB2460793A5
:10754000FEF70ABC2D25FEF707BC2E25FEF704BC6E
:107550003025FEF701BCBA46FEF7FEBB3125FEF72B
:10756000FBBB2E25FEF7F8BB2C25FEF7F5BB2C2523
:10757000FEF7F2BB3325FEF7EFBB3C25FEF7ECBB75
:107580003D25FEF7E9BB3625FEF7E6BB3525FEF7C0
:10759000E3BB3525FEF7E0BB3B25FEF7DDBB3B2516
:1075A0000293FEF7D9BB0293FEF7D6BB079B019A65
:1075B000003318BF0123002A18BF0133069A002A9E
:1075C00018BF0133029A002A18BF0133039A002A18
:1075D00018BF0133012B05DD674B684A40F61F01D8
:1075E000FEF7C2BCE37D5F0605D0654B634A40F6FB
:1075F0002101FEF7B9BC079BC3B1D9F80C30ABB180
:107600002268079965F390222260049A2046521A54
:10761000984720B1E37D032262F30603E375E37D1F
:1076200025685E06C5F3862540F09080E37D580608
:1076300005D0534B514A40F62201FEF795BC019B01
:10764000BBB1D9F81030A3B12268019965F390223B
:107650002260049A2046521A984720B1E37D042202
:1076600062F30603E375E37D25685906C5F38625B5
:107670006CD1E37D5A0605D0414B404A40F62301C8
:10768000FEF772BC069BBBB1D9F80430A3B12268E7
:10769000069965F390222260049A2046521A984770
:1076A00020B1E37D022262F30603E375E37D2568E2
:1076B0005B06C5F3862549D1E37D5F0605D0304BD7
:1076C0002E4A40F62401FEF74FBC029BBBB1D9F80D
:1076D0001830A3B12268029965F390222260049ABF
:1076E0002046521A984720B1E37D062262F3060332
:1076F000E375E37D25685E06C5F3862526D1E37D27
:10770000580605D01E4B1D4A40F62501FEF72CBC3D
:10771000039BBBB1D9F80830A3B12268039965F384
:1077200090222260049A2046521A984720B1E37DA5
:10773000082262F30603E375E37D25685906C5F365
:10774000862503D1236865F3902323600C9810E00D
:10775000E37D5A0602BF202262F30603E375236825
:1077600065F390232360CBEB0A0002E0002000E0E9
:10777000184611B0BDE8F08F2B831100568B110015
:107780001C82110020289ABF024B53F820000248A7
:10779000704700BFF88B1100F383110070B52022F1
:1077A0000D4600210446866908F0BDFB4FF000033A
:1077B00065F30103A661237025B1012D0CBF0422DE
:1077C000022200E01222236862F390232360E37D0B
:1077D0006FF30603E37570BD2DE9F84F05460026EB
:1077E0001C461746B2420CBF14201820A8461E8023
:1077F0005E804FF0070B05EB010A4FF00109D04501
:1078000052D298F80010FEF755F9431E1E2B29D8C6
:10781000DFE813F00D0128002800280028002800C8
:107820002800280028002800280028002800280018
:107830002800280028002800280028002F004500E4
:107840004500450031001F0022004500240045008E
:107850002600012633460FE003230DE004230BE04E
:10786000052309E08C4B8D4A4FF416618C4807F0D4
:1078700091FF002300E0012399005B45214403D1DF
:10788000CA880132CA800BE0C5EB08028A80A1F8E1
:107890000690218809FA03F20A43228000E05B4641
:1078A00008F101089B46AAE7238803F00302012A96
:1078B00000F0BD809A0703D4002F40F0A080A1E023
:1078C000208963894FF0000E76450344DFF8D4C168
:1078D000DFF8D481A4F80AE00CBF04210221284477
:1078E000EE18B0427CD20A1F0378082A06D8DFE8D7
:1078F00002F01D3F2D3D3A514F626200402B00F0D7
:10790000A88043F02002613A192A40F293805F2B4D
:1079100000F09080A3F12102D2B21C2A00F28580EF
:1079200028FA02F2D30700F1858080E05B2B00F09B
:10793000928043F02002613A192A40D9A3F1300223
:10794000092A3CD92D3B012B71D838E043F02002A5
:10795000613A192A35D9A3F13002092A31D9A3F1A4
:107960002D02012A2DD93A2B61D176E05D2B76D0FC
:10797000A3F130020A2A29D943F02002613A052AEC
:1079800024D92E2B22D0072951D1252B4FD168E0A5
:107990005D2B64D043F02002613A192A65D9A3F126
:1079A0002502D2B2142A5ED82CFA02F2D2075CD495
:1079B0007E2B3CD159E0303B092B5BD937E0431B90
:1079C0002381638906210133638107E0072901D000
:1079D000431B23816389072101336381013080E7E1
:1079E0000239C9B20A293FF467AF012303FA01F152
:1079F00040F2AF330B40002B3FF45EAF17E023881B
:107A0000062B14D1208800F0040080B2002840D05A
:107A1000A0890A22002128440AF024FEB0F5803F04
:107A200005D260800020BDE8F88F7E2B02D00120B7
:107A3000BDE8F88F032907D0431BA3832388A4F84C
:107A40001EE043F040032380E38B03210133E383F3
:107A5000C4E70421C2E70521C0E70B21BEE70821E6
:107A6000BCE7092102E05F2BA2D10A21638901331F
:107A70006381B3E70C2907D0431BA3812388A4F8B3
:107A80000EE043F004032380E3890C210133E381FA
:107A9000A4E7BDE8F88F00BF2C841100B18B110062
:107AA0004082110001FB1F00F9BFFF1738B50446E3
:107AB0001D4604F04FFC9DF9101004F1200004F065
:107AC0001DFD20462577024904F062FC204638BDA2
:107AD00040420F0008B572B604F05AFC62B608BD09
